:020000042000DA
:1000000000000120910100207F03002081030020D7
:1000100083030020850300208703002000000000E8
:100020000000000000000000000000008903002024
:100030008B030020000000008D0300208F030020B0
:1000400091030020930300209503002097030020D4
:10005000990300209B0300209D0300209F030020A4
:10006000A1030020A3030020A5030020A703002074
:10007000A9030020E10A0020AD030020AF03002007
:10008000B1030020B3030020B50300202D0500209C
:10009000B9030020BB030020BD030020BF030020E4
:1000A000C1030020C3030020C5030020A90C0020C9
:1000B0009D0D0020CB030020CD030020CF030020A6
:1000C000D1030020D3030020D5030020D703002054
:1000D000D9030020DB030020DD030020DF03002024
:1000E000E1030020E3030020E5030020E7030020F4
:1000F000E9030020EB030020ED030020EF030020C4
:10010000F1030020F3030020F5030020F703002093
:10011000F9030020FB030020FD030020FF03002063
:10012000010400200304002005040020070400202F
:10013000090400200B0400200D0400200F040020FF
:1001400011040020130400201504002017040020CF
:10015000190400201B0400201D0400201F0400209F
:10016000210400202304002025040020270400206F
:10017000290400202B0400202D0400202F0400203F
:1001800031040020330400200000000000000000C3
:100190004FF0000BDFF8BE020068DFF8B612096806
:1001A00001F0030100F01C00142801D14BF0020BF8
:1001B000002901D04BF0010BBBF1000F05D0A7487F
:1001C000A749DFF8722200F09FF8A64880470BF09D
:1001D000020ABAF1000F0CD0DFF86E02DFF86E12DF
:1001E00002680B680FB44FF000024FF0FF0302608B
:1001F0000B609D489D4A9E4B022808D1DFF83E12B5
:100200000A60DFF842120A60DFF836120B6001283C
:1002100008D1DFF82E120A60DFF82A120A60DFF830
:100220001E120B609348002809D193489349944AC1
:1002300000F032F893489449944A00F02DF894481D
:100240009449954A00F028F894489549DFF8E6214A
:1002500000F05AF8BBF1000F12D092489249DFF833
:10026000DA2100F051F80BF0020ABAF1000F07D0C2
:100270000FBC02600B6000BFAFF30080AFF30080E3
:10028000DFF828020FF2030E00474FF000004FF096
:100290000001DFF81CF2FEE72DE9F841884225D085
:1002A000B2EB010200D5FEE740EA010313F00303BD
:1002B00002D000F01DF819E04FF000039046121133
:1002C000F7D09A421CBFF0C8F0C103F10103F8D186
:1002D00008F00F08B8F1000F08D004780C7000F196
:1002E000010001F10101B8F10108F6D1BDE8F88182
:1002F00008B54FF0000303780B7000F1010001F125
:100300000101013AF7D108BD884237D000F0030659
:10031000002E14D04FF00405A5EB06044FF008079B
:1003200007FB06F8914669FA08F9002C07D080F817
:10033000009069FA07F900F10100013CF5E74FF080
:1003400000060F46091A88460911914614461546BB
:10035000B14206D018BFA0E8340206F10106B1424E
:10036000F8D108F00F08B8F1000F07D002704FEA7B
:10037000322200F10100B8F10108F4E77047FEE70E
:10038000FEE7FEE7FEE7FEE7FEE7FEE7FEE7FEE745
:10039000FEE7FEE7FEE7FEE7FEE7FEE7FEE7FEE735
:1003A000FEE7FEE7FEE7FEE7FEE7FEE7FEE7FEE725
:1003B000FEE7FEE7FEE7FEE7FEE7FEE7FEE7FEE715
:1003C000FEE7FEE7FEE7FEE7FEE7FEE7FEE7FEE705
:1003D000FEE7FEE7FEE7FEE7FEE7FEE7FEE7FEE7F5
:1003E000FEE7FEE7FEE7FEE7FEE7FEE7FEE7FEE7E5
:1003F000FEE7FEE7FEE7FEE7FEE7FEE7FEE7FEE7D5
:10040000FEE7FEE7FEE7FEE7FEE7FEE7FEE7FEE7C4
:10041000FEE7FEE7FEE7FEE7FEE7FEE7FEE7FEE7B4
:10042000FEE7FEE7FEE7FEE7FEE7FEE7FEE7FEE7A4
:10043000FEE7FEE7704700000000A2A2A2A2008033
:100440000340088003401080034030800340348024
:1004500003403880034018080240000000F00020EC
:10046000000001209D0E00200000000000000000A0
:10047000010000000000000000000020000000203B
:1004800090010020C0040020C004002020100020A3
:1004900020100020201000203010002030100020FC
:1004A000C0100020C010002000F00020550F0020D8
:1004B0001D050020000000000000000000000000FA
:1004C00010B5054C237833B9044B13B10448AFF38E
:1004D00000800123237010BD3010002000000000B8
:1004E00000100020084B10B51BB108480849AFF3B5
:1004F00000800848036803B910BD074B002BFBD0F0
:10050000BDE81040184700BF0000000000100020A8
:1005100034100020201000200000000080B400AF44
:1005200000231846BD465DF8047B704780B582B055
:1005300000AF0F4B5B68FB710D4B9B68DAB2FB7928
:100540001340FB71FB7903F00203BB71BB79002BF5
:1005500001D000F0E7F8FB7903F001037B717B79B0
:10056000002B01D000F006F80837BD4680BD00BF63
:100570000060014080B584B000AF634B1B78022B54
:100580003FD0052B6BD0012B40F0AD805F4B1B881B
:100590009BB2002B30D05E4B1A685C4B1B889BB221
:1005A0001046194600F006FAF860584B1B889BB2BB
:1005B0001A46FB689A420FD9544B1B889AB2FB68C3
:1005C0009BB2D31A9AB2514B1A80514B1A68FB68EE
:1005D00013444F4A13600EE04C4B00221A804D4BDF
:1005E0001B68002B03D0484B02221A7003E0464BD5
:1005F00003221A7004E003E000BE00F0B5F97FE0CA
:100600007EE0444B1B68002B24D0434B1A68414BBF
:100610001B681046194600F0CDF9B8603D4B1B68C9
:10062000BA689A420CD23B4B1A68BB68D31A394A53
:100630001360394B1A68BB681344374A13600DE0E6
:10064000364A364B9B6823F0010393602E4B0322FE
:100650001A7003E000BE00F087F951E050E02D4B26
:100660001B68002B1BD12E4B1B68002B14D02C4B6E
:100670001B68294898470246264B1A60254B1B6881
:10068000002B0CD1254A254B9B6823F00103936076
:100690001D4B03221A7002E000BE00F065F91D4BED
:1006A0001B68002B09D11D4A1C4B9B6823F00103DA
:1006B0009360154B03221A7022E0174B1A68154BF2
:1006C0001B681046194600F075F97860114B1A68DE
:1006D0007B68D31A0F4A13600F4B1A687B68134468
:1006E0000D4A13600CE00D4A0C4B9B6823F001038C
:1006F0009360002000F018F9034B00221A7000BF2D
:100700001037BD4680BD00BF71100020541000207E
:10071000501000205C1000205810002000600140A4
:100720006C10002080B584B000AF794B1B69FB8151
:10073000FB8923F4FF4323F07F03BB81FB89FB721A
:10074000744B1B78052B00F2D88001A252F823F0DD
:1007500069070020E5080020E5080020C107002007
:100760000F080020B9080020BB89002B27D0FB7A96
:10077000F12B06D0FB7ABB72BB7A184600F04CF91D
:100780001DE0654B00221A80644B1B68624A128888
:1007900092B21344FA7A1A705F4B1B889BB20133F2
:1007A0009AB25D4B1A805D4B1B685B4A128892B20D
:1007B000134400221A70574B04221A70A4E0A3E0DD
:1007C000BB89002B22D0FB7A7B72554B1B78DBB2A6
:1007D0007A7A9A4215D1504B00221A804F4B1B68EF
:1007E0004D4A128892B213447A7A1A704A4B1B8887
:1007F0009BB201339AB2484B1A80464B04221A70BE
:1008000004E07B7A184600F007F97DE07CE0BB89C4
:10081000002B06D0FB7A3B723B7A184600F0FCF8BE
:1008200049E03E4B1A683C4B1B889BB2013B13448A
:100830001B78F12B16D1394B1B68374A128892B2BC
:100840001344FA7A1A70354B1A68334B1B889BB2E3
:10085000013B13441B78184600F0DEF82D4B0022B4
:100860001A7028E02C4B1B889AB22E4B1B889A4298
:1008700010D2FB7AFB71294B1B68274A128892B26F
:100880001344FA791A70244B1B889BB201339AB235
:10089000214B1A80204B1B889AB2224B1B889A420C
:1008A00009D11D4B1B889BB2184600F03DF8194B2F
:1008B00000221A7028E027E0BB89002B0BD1174BD0
:1008C0001B680133FA7A1A70022000F02DF8114BE0
:1008D00000221A7018E0FB7ABB71BB79184600F051
:1008E0009BF811E0BB89002B06D0FB7A7B717B79EA
:1008F000184600F091F807E006E0002000F014F838
:10090000044B00221A7000BF1037BD4680BD00BFE7
:10091000006001407110002066100020601000206F
:100920004C1000206410002080B582B000AF034658
:10093000FB800A4B1B68002B0DD0084B1B68084A34
:100940001168FA88084611469847044B00221A603D
:10095000044B00221A700837BD4680BD6810002085
:10096000601000207010002080B582B000AF0E4BE8
:100970001B78DBB2002B13D00C4B1B889BB21846A4
:10098000FFF7D2FF0A4A0A4B1B6843F001031360CA
:10099000074B1B6803F001037B607B68002BF7D1DA
:1009A0000837BD4680BD00BF7010002066100020D3
:1009B0000060014080B485B000AF78603960154AAE
:1009C000144B1B6823F0040313600023FB60114BDE
:1009D0005B6803F00103BB600DE00E497A68FB68B9
:1009E00013441B780B61FB680133FB60094B5B68A8
:1009F00003F00103BB60BB68002B03D0FA683B68BF
:100A00009A42EAD3FB6818461437BD465DF8047B6A
:100A1000704700BF0060014080B582B000AF034660
:100A2000FB71064B1B68002B04D0044B1B68FA7942
:100A3000104698470837BD4680BD00BF741000209F
:100A400080B485B000AF0346FB800023FB73FB88B6
:100A500003F00303002B02D00023FB7338E0FB8874
:100A600003F00C03002B02D00123FB7330E0FB8862
:100A700003F03003002B02D00223FB7328E0FB8835
:100A800003F0C003002B02D00323FB7320E0FB889C
:100A900003F44073002B02D00423FB7318E0FB889F
:100AA00003F44063002B02D00523FB7310E0FB88A6
:100AB00003F44053002B02D00623FB7308E0FB88AD
:100AC00003F44043002B02D00723FB7300E000BE79
:100AD000FB7B18461437BD465DF8047B704700BFAA
:100AE000684620F007018D4691B586B000AF184BDF
:100AF0003C1D186859689A68DB680FC4154B5B6821
:100B0000FB82FB8A1846FFF79BFF03467B757B7DC4
:100B10005B0007F11802134433F8143CDB439AB22C
:100B2000FB8A1340FB827B7D0B4A52F82330002B5B
:100B300004D07B7D084A52F823309847FB8A002B6B
:100B4000DFD11837BD46BDE891408546704700BFEC
:100B5000F00F0020003000407810002090B484B0E6
:100B600000AFF860B9607A60FB704B484B4B1A6875
:100B7000F97813469B001344DB01034403F5E0734B
:100B800059604749454B1A6813469B0013449B0024
:100B90000B44FA685A604249404B1A6813469B005E
:100BA00013449B000B44BA689A603D483B4B19685C
:100BB0003B4C3A4B1A6813469B0013449B0023445A
:100BC00008335B681A0C12040B469B000B449B0015
:100BD000034408335A607B68B3F5803F0FD97B68C4
:100BE000A3F580332F4A1361BB6803F580332D4A88
:100BF000D360FB6803F580332A4A936019E02848E4
:100C0000264B1A68264C254B19680B469B000B4453
:100C10009B00234408335B68796889B21943134603
:100C20009B0013449B000344083359601D4B002272
:100C30001A611B48194B1A68194C184B19680B4656
:100C40009B000B449B00234408335B6843F4E001A2
:100C500013469B0013449B000344083359600E491C
:100C60000E4B1A6813469B001344DB010B4403F53B
:100C7000E07301221A600849084B1A6813469B006A
:100C80001344DB010B4403F5E47300225A60103770
:100C9000BD4690BC704700BF00002842B010002045
:100CA0000040014098100020684620F007018D4662
:100CB00091B500AF344A354B1B6803F52873012109
:100CC00042F823103248314B1A68314C2F4B1968C7
:100CD0000B469B000B449B00234408335B6823F4C2
:100CE000E00113469B0013449B0003440833596002
:100CF000264B1B680133254A1360244B1B68042BC9
:100D000002D1224B00221A60224B1B69002B17D004
:100D1000214B1B68042B03D11F4B00221A6004E0F7
:100D20001D4B1B6801331C4A13601A4B9868194B02
:100D3000D968184B1A69174B1B7DFFF70FFF1EE090
:100D40001349124B1A6813469B0013449B000B4433
:100D500008335B6803F4E003002B10D10B4B002237
:100D60001A600D4B00221A600A4B01221A70094BBF
:100D70005B68002B03D0074B5B6801209847BD469A
:100D8000BDE891408546704700002842B41000201D
:100D90000040014098100020B0100020684620F06C
:100DA00007018D4681B583B000AF384B1B683B60AF
:100DB0003B6803F470633B603B68002B2FD03449E1
:100DC000344B1A6813469B001344DB010B4403F5B4
:100DD00002731B68002B0AD02F4B02221A702E4B75
:100DE0005B68002B03D02C4B5B6802209847284996
:100DF000284B1A6813469B001344DB010B4403F590
:100E000002735B68002B0AD0234B03221A70224B1B
:100E10005B68002B03D0204B5B68032098471B4B7B
:100E20001B683B603B6803F470433B603B68002BEE
:100E30000AD0194B04221A70174B5B68002B03D0A1
:100E4000154B5B680420984700237B6014E0104931
:100E50007A6813469B001344DB010B4403F5E473EB
:100E600001221A600A4A7B6803F52873012142F8BF
:100E700023107B6801337B607B68032BE7D90C3739
:100E8000BD46BDE881408546704700BF0040014037
:100E900000002842B41000209810002080B500AF58
:100EA00000F030F8044A044B5B6943F4007353616B
:100EB000FFF7C0FA80BD00BF00ED00E080B483B052
:100EC00000AF0E4BD3F84C313B603B684FF602024B
:100ED000934203D00A4A934203D005E001237B608A
:100EE00005E002237B6002E000237B6000BF7B689B
:100EF00018460C37BD465DF8047B70470080034000
:100F000002F8010080B582B000AFFFF7D7FF78602C
:100F10007B68012B00D002E000F004F800BF083726
:100F2000BD4680BD80B400AF094A094BD3F8983064
:100F300043F48073C2F89830054A054BD3F89830D3
:100F400023F08063C2F89830BD465DF8047B70479B
:100F5000008003400E4B70B51E460E4C0025E41A6F
:100F6000A410A54204D056F8253098470135F8E77B
:100F700000F046F8084B094C1E46E41AA410002560
:100F8000A54204D056F8253098470135F8E770BDE2
:100F90001810002018100020181000201C1000202D
:100FA0000100000003008000010000010300800137
:100FB000010000020300800201000003030080031F
:100FC0000100000403000004010080040300800409
:100FD0000300000501008005010000060300000673
:100FE000010080060300800601000007030080075F
:100FF00003000C003000C0000003000C003000C0F3
:10100000F8B500BFF8BC08BC9E467047F8B500BFF5
:10101000F8BC08BC9E467047E5040020C1040020CF
:1010200000000000000000000000000000000000C0
:040000052000019145
:00000001FF
