:020000042000DA
:1000000000000120910100207F03002081030020D7
:1000100083030020850300208703002000000000E8
:100020000000000000000000000000008903002024
:100030008B030020000000008D030020ED11002044
:1000400091030020930300209503002097030020D4
:10005000990300209B0300209D0300209F030020A4
:10006000A1030020A3030020A5030020A703002074
:10007000A9030020B1190020AD030020AF03002028
:10008000B1030020B3030020B5030020FD130020BE
:10009000B9030020BB030020BD030020BF030020E4
:1000A000C1030020C3030020C5030020791B0020EA
:1000B0006D1C0020CB030020CD030020CF030020C7
:1000C000D1030020D3030020DD11002031130020D4
:1000D000D9030020DB030020DD030020DF03002024
:1000E000E1030020E3030020E5030020E7030020F4
:1000F000E9030020EB030020ED030020EF030020C4
:10010000F1030020F3030020F5030020F703002093
:10011000F9030020FB030020FD030020FF03002063
:10012000010400200304002005040020070400202F
:10013000090400200B0400200D0400200F040020FF
:1001400011040020130400201504002017040020CF
:10015000190400201B0400201D0400201F0400209F
:10016000210400202304002025040020270400206F
:10017000290400202B0400202D0400202F0400203F
:1001800031040020330400200000000000000000C3
:100190004FF0000BDFF8BE020068DFF8B612096806
:1001A00001F0030100F01C00142801D14BF0020BF8
:1001B000002901D04BF0010BBBF1000F05D0A7487F
:1001C000A749DFF8722200F09FF8A64880470BF09D
:1001D000020ABAF1000F0CD0DFF86E02DFF86E12DF
:1001E00002680B680FB44FF000024FF0FF0302608B
:1001F0000B609D489D4A9E4B022808D1DFF83E12B5
:100200000A60DFF842120A60DFF836120B6001283C
:1002100008D1DFF82E120A60DFF82A120A60DFF830
:100220001E120B609348002809D193489349944AC1
:1002300000F032F893489449944A00F02DF894481D
:100240009449954A00F028F894489549DFF8E6214A
:1002500000F05AF8BBF1000F12D092489249DFF833
:10026000DA2100F051F80BF0020ABAF1000F07D0C2
:100270000FBC02600B6000BFAFF30080AFF30080E3
:10028000DFF828020FF2030E00474FF000004FF096
:100290000001DFF81CF2FEE72DE9F841884225D085
:1002A000B2EB010200D5FEE740EA010313F00303BD
:1002B00002D000F01DF819E04FF000039046121133
:1002C000F7D09A421CBFF0C8F0C103F10103F8D186
:1002D00008F00F08B8F1000F08D004780C7000F196
:1002E000010001F10101B8F10108F6D1BDE8F88182
:1002F00008B54FF0000303780B7000F1010001F125
:100300000101013AF7D108BD884237D000F0030659
:10031000002E14D04FF00405A5EB06044FF008079B
:1003200007FB06F8914669FA08F9002C07D080F817
:10033000009069FA07F900F10100013CF5E74FF080
:1003400000060F46091A88460911914614461546BB
:10035000B14206D018BFA0E8340206F10106B1424E
:10036000F8D108F00F08B8F1000F07D002704FEA7B
:10037000322200F10100B8F10108F4E77047FEE70E
:10038000FEE7FEE7FEE7FEE7FEE7FEE7FEE7FEE745
:10039000FEE7FEE7FEE7FEE7FEE7FEE7FEE7FEE735
:1003A000FEE7FEE7FEE7FEE7FEE7FEE7FEE7FEE725
:1003B000FEE7FEE7FEE7FEE7FEE7FEE7FEE7FEE715
:1003C000FEE7FEE7FEE7FEE7FEE7FEE7FEE7FEE705
:1003D000FEE7FEE7FEE7FEE7FEE7FEE7FEE7FEE7F5
:1003E000FEE7FEE7FEE7FEE7FEE7FEE7FEE7FEE7E5
:1003F000FEE7FEE7FEE7FEE7FEE7FEE7FEE7FEE7D5
:10040000FEE7FEE7FEE7FEE7FEE7FEE7FEE7FEE7C4
:10041000FEE7FEE7FEE7FEE7FEE7FEE7FEE7FEE7B4
:10042000FEE7FEE7FEE7FEE7FEE7FEE7FEE7FEE7A4
:10043000FEE7FEE7704700000000A2A2A2A2008033
:100440000340088003401080034030800340348024
:1004500003403880034018080240000000F00020EC
:10046000000001203D2E00200000000000000000E0
:10047000010000000000000000000020000000203B
:1004800090010020C0040020C00400203061002042
:100490003061002030610020A0610020A0610020B8
:1004A000506300205063002000F00020DD3C00205D
:1004B0001D050020000000000000000000000000FA
:1004C00010B5054C237833B9044B13B10448AFF38E
:1004D00000800123237010BDA061002000000000F7
:1004E00008610020084B10B51BB108480849AFF35C
:1004F00000800848036803B910BD074B002BFBD0F0
:10050000BDE81040184700BF00000000086100204F
:10051000A4610020306100200000000080B582B09E
:1005200000AF00200021072200F09CFC0346FB7175
:1005300000F0ECFEFB79002B02D1094803F072FCBD
:100540000420042100F00AFC064800F043FD00F0FE
:100550006FFE054805490F2201F090FCF4E700BF4B
:100560002C5E002038620020246300202C630020D1
:1005700080B483B000AF03463960FB7197F9073050
:10058000002B0BDA0D49FB7903F00F03043B3A68AB
:10059000D2B21201D2B20B441A7609E0084997F997
:1005A00007303A68D2B21201D2B20B4483F800236A
:1005B0000C37BD465DF8047B704700BF00ED00E0DE
:1005C00000E100E080B582B000AF78607B68013B5D
:1005D000B3F1807F01D301230FE00A4A7B68013B1E
:1005E00053604FF0FF300F21FFF7C2FF054B002291
:1005F0009A60044B07221A60002318460837BD464C
:1006000080BD00BF10E000E090B587B002AF786019
:100610000B46FB70FB789CB20023009309486821CD
:100620007A68234601F030FD06480A2101F000FEF9
:100630000346FB73FB7B032B01D100F0B9FD14379C
:10064000BD4690BD9862002090B587B002AF78603B
:100650000B46FB7001230093144868217A6801233C
:1006600001F012FD114801F0D3FD0346FB730F4862
:100670000A2101F0DDFD0D4801F0CAFD0346FB73C0
:10068000FB7B032B01D100F093FDFB789CB2002390
:100690000093064868217A68234601F057FD034815
:1006A0000A2101F0C5FD1437BD4690BD98620020B7
:1006B00080B485B000AF0346FB71FB79032B27D8CC
:1006C00001A252F823F000BFD9060020E70600205F
:1006D000F5060020030700200023FB73134B4FF0A7
:1006E0008D425A601BE00823FB73104B4FF08C4285
:1006F0005A6014E01023FB730C4B4FF08B425A608E
:100700000DE01823FB73094B4FF08A425A6006E054
:100710000023FB73054B4FF08D425A6000BFFB7BFB
:1007200018461437BD465DF8047B70473C630020D3
:1007300080B485B000AF0346FB71FB79032B23D84F
:1007400001A252F823F000BF5907002065070020DE
:10075000710700207D0700200023FB73114B124A14
:100760001A6017E00823FB730E4B104A1A6011E061
:100770001023FB730B4B0E4A1A600BE01823FB731C
:10078000084B0C4A1A6005E00023FB73054B064A30
:100790001A6000BFFB7B18461437BD465DF8047B2A
:1007A000704700BF3C630020000003430000834209
:1007B00033330342333383412DE9B0438EB004AF6A
:1007C0001C2387F820300220FFF772FF034663F0F6
:1007D0001F03DBB287F8213007F1200318460221FE
:1007E000FFF712FF1B2387F820300020FFF7A0FF40
:1007F000034663F01F03DBB287F8213007F12003C3
:1008000018460221FFF700FF0D2387F8203007F17B
:10081000200318460421FFF717FF97F8203003F054
:10082000E003DB10DAB297F8233003F030031B113A
:10083000DBB21343DBB2DBB23B7697F8203003F038
:100840001F03DBB2FB763B7E1A46FB7EBE48114699
:100850001A4603F071FA3B7E013B184603F01EF87E
:1008600003461846B94903F021F90346FB60FB68CB
:10087000184602F0A3FC02460B46A9A1D1E90001EB
:1008800004F072F902460B4610461946A6A3D3E9B6
:10089000002302F0E7FC02460B461046194602F020
:1008A000F3FE0346FB60FB7E013B184602F074FC3E
:1008B00002460B469EA1D1E9000104F055F902461B
:1008C0000B46104619469CA3D3E9002302F0CAFC4C
:1008D00002460B461046194602F0D6FE03463B6020
:1008E00097F8213003F0E003DB10DAB297F82330F9
:1008F00003F00C039B10DBB21343DBB2DBB27B765D
:1009000097F8213003F01F03DBB23B777B7E1A465A
:100910003B7F8D4811461A4603F00EFA7B7E013B61
:10092000184602F0BBFF03461846884903F0BEF89C
:1009300003463B613B69184602F040FC02460B4609
:1009400077A1D1E9000104F00FF902460B461046E9
:10095000194675A3D3E9002302F084FC02460B4636
:100960001046194602F090FE03463B613B7F013B77
:10097000184602F011FC02460B466DA1D1E90001B8
:1009800004F0F2F802460B46104619466CA3D3E970
:10099000002302F067FC02460B461046194602F09F
:1009A00073FE03467B6097F8223003F0E003DB1010
:1009B000DAB297F82330DBB203F00303DBB2134360
:1009C000DBB2DBB2BB7697F8223003F01F03DBB259
:1009D0007B77BB7E1A467B7F5B4811461A4603F045
:1009E000ABF9BB7E013B184602F058FF03461846A0
:1009F000564903F05BF803467B617B69184602F0B9
:100A0000DDFB02460B4646A1D1E9000104F0ACF83B
:100A100002460B461046194643A3D3E9002302F0D1
:100A200021FC02460B461046194602F02DFE0346F5
:100A30007B617B7F013B184602F0AEFB02460B4612
:100A40003BA1D1E9000104F08FF802460B461046A5
:100A5000194639A3D3E9002302F004FC02460B46F1
:100A60001046194602F010FE0346BB603B7E184656
:100A700002F010FF0246FB681046194602F058FECD
:100A800003461A46FB681046194603F00FF8034662
:100A900018462F4902F056FF034618462C4902F02B
:100AA00049FE0346FB607B7E184602F0F3FE0246D9
:100AB0003B691046194602F03BFE03461A463B6965
:100AC0001046194602F0F2FF03461846204902F08C
:100AD00039FF034618461E4902F02CFE03463B61CF
:100AE000BB7E184602F0D6FE02467B6910461946C8
:100AF00002F01EFE03461A467B691046194602F0B4
:100B0000D5FF03461846124902F01CFF034618465B
:100B10000F4902F00FFE03467B61FB7E184619E089
:100B200068226C787AA50540C3F5285C8FC2954091
:100B300023DBF97E6ABCF03F000000000096A9406C
:100B4000000000000096A9C04C5E00200000F041AB
:100B50000000C84202F09EFE02463B68104619465D
:100B600002F0E6FD03461A463B681046194602F0BD
:100B70009DFF03461846744902F0E4FE03461846FA
:100B8000714902F0D7FD03463B603B7F184602F0F7
:100B900081FE02467B681046194602F0C9FD0346F5
:100BA0001A467B681046194602F080FF0346184635
:100BB000654902F0C7FE03461846634902F0BAFDD4
:100BC00003467B607B7F184602F064FE0246BB68EA
:100BD0001046194602F0ACFD03461A46BB681046A3
:100BE000194602F063FF03461846574902F0AAFE71
:100BF00003461846544902F09DFD0346BB60FB685E
:100C0000184602F0DBFA804689463B69184602F036
:100C1000D5FA04460D467B69184602F0CFFA024623
:100C20000B46CDE90045CDE90223484842464B46F4
:100C300003F082F83B68184602F0C0FA8046894605
:100C40007B68184602F0BAFA04460D46BB6818469F
:100C500002F0B4FA02460B46CDE90045CDE9022385
:100C60003B4842464B4603F067F8002387F827309D
:100C700060E097F827309B0007F12802134453F8EF
:100C80001C3C012214461846324903F017F803466B
:100C9000002B01D100231C46E4B297F827309B00BB
:100CA00007F12802134453F81C3C0122154618464C
:100CB000294902F0E5FF0346002B01D100231D4620
:100CC000EBB22343DBB2002B01D0012337E097F8CE
:100CD00027309B0007F12802134453F8283C0122D7
:100CE000144618461B4902F0E9FF0346002B01D1C8
:100CF00000231C46E4B297F827309B0007F1280236
:100D0000134453F8283C012215461846124902F0B4
:100D1000B7FF0346002B01D100231D46EBB223434E
:100D2000DBB2002B01D0012309E097F82730013313
:100D300087F8273097F82730022B9AD900231846D6
:100D40002837BD46BDE8B0830000C842745E00206D
:100D5000C45E002000006041000060C180B584B026
:100D600000AF03460A46FB711346BB713C4AFB7950
:100D700013726B233B73FB79042B26D801A252F824
:100D800023F000BF990D0020A30D0020AD0D002021
:100D9000B70D0020C10D002008237B730723BB7310
:100DA00018E008237B733823BB7313E028237B737D
:100DB0000023BB730EE040237B730023BB7309E069
:100DC00000237B730023BB7304E000237B730023A9
:100DD000BB7300BFFB79022B2ED1BB79042B25D826
:100DE00001A252F823F000BFFD0D0020030E0020E9
:100DF0000F0E00201B0E0020270E0020BB7BBB73B4
:100E000017E0BB7B43F04003DBB2BB7311E0BB7B5D
:100E100063F07F03DBB2BB730BE0BB7B63F03F038C
:100E2000DBB2BB7305E0BB7BBB7302E0BB7BBB7378
:100E300000BF0B4ABB79537207F10C03184602211D
:100E4000FFF7E2FB6C233B73BB7B7B7307F10C0367
:100E500018460221FFF7D8FB00BF1037BD4680BD02
:100E60003C630020B0B586B002AF0346FB710B4671
:100E7000BB7113467B7100F09BF93F4801F0C8F944
:100E80000346FB7375233B7307F10C0318460121DE
:100E9000FFF7DAFB384801F0BBF90346FB733B7BF5
:100EA000682B63D16B233B7300237B7307F10C0327
:100EB00018460221FFF7A8FB304B04221A721923AF
:100EC0003B737B797B7307F10C0318460221FFF714
:100ED0009BFBFFF771FC0346FB73FB7B002B03D1ED
:100EE000274802F09FFF02E0264802F09BFFFB7BB1
:100EF000012B01D101233AE01C233B73FB791846F7
:100F0000FFF7D6FB03467B7307F10C03184602215B
:100F1000FFF77AFB194B5B68184602F04FF904465D
:100F20000D467B7B0093184822462B4602F004FFB7
:100F30001B233B73BB791846FFF7FAFB03467B7311
:100F400007F10C0318460221FFF75EFB0B4B1B68F1
:100F5000184602F033F904460D467B7B00930B489C
:100F600022462B4602F0E8FE002300E0012318464B
:100F70001037BD46B0BD00BF986200203C63002022
:100F8000105F0020245F00203C5F0020645F002091
:100F900080B584B000AF78601B233B7307F10C036E
:100FA00018460221FFF750FB3B7BDB08DBB203F066
:100FB0000303DAB27B6883F848207B7B5B00DBB2FB
:100FC00003F03003DAB27B6883F848201037BD465F
:100FD00080BD00BF80B586B000AF78603B233B7218
:100FE00007F1080318460E21FFF72EFB3B7A1B0280
:100FF0009AB27B7A9BB213439AB27B681A80BB7A0F
:101000001B029AB2FB7A9BB213439AB27B685A8056
:101010003B7B1B029AB27B7B9BB213439AB27B68E9
:101020009A803B7C1B029AB27B7C9BB213439AB2A0
:101030007B681A84BB7C1B029AB2FB7C9BB2134375
:101040009AB27B685A843B7D1B029AB27B7D9BB22D
:1010500013439AB27B689A847B681B8C1BB2184638
:1010600002F01CFC02464F4B1B681046194602F06A
:101070001DFD0346184602F0A1F802460B467968AA
:10108000C1E90A237B685B8C1BB2184602F006FCA0
:101090000246444B1B681046194602F007FD034602
:1010A000184602F08BF802460B467968C1E90C231A
:1010B0007B689B8C1BB2184602F0F0FB0246394B52
:1010C0001B681046194602F0F1FC0346184602F070
:1010D00075F802460B467968C1E90E237B681B88C8
:1010E0001BB2184602F0DAFB02462E4B5B68104634
:1010F000194602F0DBFC0346184602F05FF8024690
:101100000B467968C1E902237B685B881BB21846ED
:1011100002F0C4FB0246234B5B681046194602F0FE
:10112000C5FC0346184602F049F802460B467968AA
:10113000C1E904237B689B881BB2184602F0AEFB12
:101140000246184B5B681046194602F0AFFC034696
:10115000184602F033F802460B467968C1E90623C7
:10116000BB7B1B029AB2FB7B9BB213439BB2FB82FD
:10117000FA8A7B68A3F84020FB8A184602F08EFBAF
:1011800003461846084902F091FC034618460749F1
:1011900002F0D0FA03461A467B685A641837BD46F7
:1011A00080BD00BF3C6300200000AA43B81E12426D
:1011B00080B500AF0748FFF705FA07484FF0A04198
:1011C000FF22002300F0FAFE034801F071FD00BF8A
:1011D00080BD00BF40420F009862002080B500AF84
:1011E000014801F07FF880BD9862002080B500AF13
:1011F00002480A2101F036F880BD00BF9862002045
:1012000080B483B000AF0346FB71084997F90730FB
:101210005B09FA7902F01F02012000FA02F241F89C
:1012200023200C37BD465DF8047B704700E100E0E9
:1012300080B500AF3348FFF7ABFE324B1B881BB2C3
:101240001B129BB2DAB2304B1A702E4B1B88DAB2EB
:101250002D4B5A702B4B5B881BB21B129BB2DAB220
:10126000294B9A70274B5B88DAB2274BDA70254BF3
:101270009B881BB21B129BB2DAB2234B1A71214B13
:101280009B88DAB2204B5A711E4B1B8C1BB21B126F
:101290009BB2DAB21C4B9A711A4B1B8CDAB21A4B06
:1012A000DA71184B5B8C1BB21B129BB2DAB2164B75
:1012B0001A72144B5B8CDAB2134B5A72114B9B8C23
:1012C0001BB21B129BB2DAB20F4B9A720D4B9B8C66
:1012D000DAB20D4BDA720B4BB3F840301BB21B1273
:1012E0009BB2DAB2084B1A73064BB3F84030DAB24D
:1012F000054B5A73034B93F84830DAB2024B9A739A
:1013000080BD00BF386200202C63002080B500AF94
:10131000054806493522012300F028FD2320FFF768
:101320006FFF00BF80BD00BF24630020001000508D
:1013300080B582B000AF0023FB7106480649202229
:1013400000F0DCFD0346DBB2FB7100BF0837BD4691
:1013500080BD00BF2463002004630020EFF31080F1
:1013600072B6704780F3108870470160704700685C
:1013700070470EB503FA01F303EA020301686FEA4E
:10138000020201EA020141EA030101600EBD0068A8
:1013900000EA020020FA01F07047018070470088DF
:1013A00070470EB503FA01F303EA020301886FEAFE
:1013B000020201EA020141EA030101800EBD008838
:1013C00000EA020020FA01F07047017070470078CF
:1013D00070470EB503FA01F303EA020301786FEADE
:1013E000020201EA020141EA030101700EBD007828
:1013F00000EA020020FA01F07047000080B582B0D8
:1014000000AF0F4B5B68FB710D4B9B68DAB2FB7949
:101410001340FB71FB7903F00203BB71BB79002B16
:1014200001D000F0E7F8FB7903F001037B717B79D1
:10143000002B01D000F006F80837BD4680BD00BF84
:101440000060014080B584B000AF634B1B78022B75
:101450003FD0052B6BD0012B40F0AD805F4B1B883C
:101460009BB2002B30D05E4B1A685C4B1B889BB242
:101470001046194600F006FAF860584B1B889BB2DC
:101480001A46FB689A420FD9544B1B889AB2FB68E4
:101490009BB2D31A9AB2514B1A80514B1A68FB680F
:1014A00013444F4A13600EE04C4B00221A804D4B00
:1014B0001B68002B03D0484B02221A7003E0464BF6
:1014C00003221A7004E003E000BE00F0B5F97FE0EB
:1014D0007EE0444B1B68002B24D0434B1A68414BE1
:1014E0001B681046194600F0CDF9B8603D4B1B68EB
:1014F000BA689A420CD23B4B1A68BB68D31A394A75
:101500001360394B1A68BB681344374A13600DE007
:10151000364A364B9B6823F0010393602E4B03221F
:101520001A7003E000BE00F087F951E050E02D4B47
:101530001B68002B1BD12E4B1B68002B14D02C4B8F
:101540001B68294898470246264B1A60254B1B68A2
:10155000002B0CD1254A254B9B6823F00103936097
:101560001D4B03221A7002E000BE00F065F91D4B0E
:101570001B68002B09D11D4A1C4B9B6823F00103FB
:101580009360154B03221A7022E0174B1A68154B13
:101590001B681046194600F075F97860114B1A68FF
:1015A0007B68D31A0F4A13600F4B1A687B68134489
:1015B0000D4A13600CE00D4A0C4B9B6823F00103AD
:1015C0009360002000F018F9034B00221A7000BF4E
:1015D0001037BD4680BD00BFE1610020C46100201E
:1015E000C0610020CC610020C86100200060014083
:1015F000DC61002080B584B000AF794B1B69FB81B2
:10160000FB8923F4FF4323F07F03BB81FB89FB723B
:10161000744B1B78052B00F2D88001A252F823F0FE
:1016200039160020B5170020B517002091160020AC
:10163000DF16002089170020BB89002B27D0FB7AFA
:10164000F12B06D0FB7ABB72BB7A184600F04CF93E
:101650001DE0654B00221A80644B1B68624A1288A9
:1016600092B21344FA7A1A705F4B1B889BB2013313
:101670009AB25D4B1A805D4B1B685B4A128892B22E
:10168000134400221A70574B04221A70A4E0A3E0FE
:10169000BB89002B22D0FB7A7B72554B1B78DBB2C7
:1016A0007A7A9A4215D1504B00221A804F4B1B6810
:1016B0004D4A128892B213447A7A1A704A4B1B88A8
:1016C0009BB201339AB2484B1A80464B04221A70DF
:1016D00004E07B7A184600F007F97DE07CE0BB89E6
:1016E000002B06D0FB7A3B723B7A184600F0FCF8E0
:1016F00049E03E4B1A683C4B1B889BB2013B1344AC
:101700001B78F12B16D1394B1B68374A128892B2DD
:101710001344FA7A1A70354B1A68334B1B889BB204
:10172000013B13441B78184600F0DEF82D4B0022D5
:101730001A7028E02C4B1B889AB22E4B1B889A42B9
:1017400010D2FB7AFB71294B1B68274A128892B290
:101750001344FA791A70244B1B889BB201339AB256
:10176000214B1A80204B1B889AB2224B1B889A422D
:1017700009D11D4B1B889BB2184600F03DF8194B50
:1017800000221A7028E027E0BB89002B0BD1174BF1
:101790001B680133FA7A1A70022000F02DF8114B01
:1017A00000221A7018E0FB7ABB71BB79184600F072
:1017B0009BF811E0BB89002B06D0FB7A7B717B790B
:1017C000184600F091F807E006E0002000F014F859
:1017D000044B00221A7000BF1037BD4680BD00BF09
:1017E00000600140E1610020D6610020D06100204E
:1017F000BC610020D461002080B582B000AF0346F8
:10180000FB800A4B1B68002B0DD0084B1B68084A55
:101810001168FA88084611469847044B00221A605E
:10182000044B00221A700837BD4680BDD8610020E5
:10183000D0610020E061002080B582B000AF0E4B87
:101840001B78DBB2002B13D00C4B1B889BB21846C5
:10185000FFF7D2FF0A4A0A4B1B6843F001031360EB
:10186000074B1B6803F001037B607B68002BF7D1FB
:101870000837BD4680BD00BFE0610020D661002072
:101880000060014080B485B000AF78603960154ACF
:10189000144B1B6823F0040313600023FB60114BFF
:1018A0005B6803F00103BB600DE00E497A68FB68DA
:1018B00013441B780B61FB680133FB60094B5B68C9
:1018C00003F00103BB60BB68002B03D0FA683B68E0
:1018D0009A42EAD3FB6818461437BD465DF8047B8C
:1018E000704700BF0060014080B582B000AF034682
:1018F000FB71064B1B68002B04D0044B1B68FA7964
:10190000104698470837BD4680BD00BFE4610020FF
:1019100080B485B000AF0346FB800023FB73FB88D7
:1019200003F00303002B02D00023FB7338E0FB8895
:1019300003F00C03002B02D00123FB7330E0FB8883
:1019400003F03003002B02D00223FB7328E0FB8856
:1019500003F0C003002B02D00323FB7320E0FB88BD
:1019600003F44073002B02D00423FB7318E0FB88C0
:1019700003F44063002B02D00523FB7310E0FB88C7
:1019800003F44053002B02D00623FB7308E0FB88CE
:1019900003F44043002B02D00723FB7300E000BE9A
:1019A000FB7B18461437BD465DF8047B704700BFCB
:1019B000684620F007018D4691B586B000AF184B00
:1019C0003C1D186859689A68DB680FC4154B5B6842
:1019D000FB82FB8A1846FFF79BFF03467B757B7DE6
:1019E0005B0007F11802134433F8143CDB439AB24E
:1019F000FB8A1340FB827B7D0B4A52F82330002B7D
:101A000004D07B7D084A52F823309847FB8A002B8C
:101A1000DFD11837BD46BDE891408546704700BF0D
:101A2000DC5F002000300040E861002090B484B00A
:101A300000AFF860B9607A60FB704B484B4B1A6896
:101A4000F97813469B001344DB01034403F5E0736C
:101A500059604749454B1A6813469B0013449B0045
:101A60000B44FA685A604249404B1A6813469B007F
:101A700013449B000B44BA689A603D483B4B19687D
:101A80003B4C3A4B1A6813469B0013449B0023447B
:101A900008335B681A0C12040B469B000B449B0036
:101AA000034408335A607B68B3F5803F0FD97B68E5
:101AB000A3F580332F4A1361BB6803F580332D4AA9
:101AC000D360FB6803F580332A4A936019E0284805
:101AD000264B1A68264C254B19680B469B000B4475
:101AE0009B00234408335B68796889B21943134625
:101AF0009B0013449B000344083359601D4B002294
:101B00001A611B48194B1A68194C184B19680B4677
:101B10009B000B449B00234408335B6843F4E001C3
:101B200013469B0013449B000344083359600E493D
:101B30000E4B1A6813469B001344DB010B4403F55C
:101B4000E07301221A600849084B1A6813469B008B
:101B50001344DB010B4403F5E47300225A60103791
:101B6000BD4690BC704700BF0000284220620020A4
:101B70000040014008620020684620F007018D46C1
:101B800091B500AF344A354B1B6803F5287301212A
:101B900042F823103248314B1A68314C2F4B1968E8
:101BA0000B469B000B449B00234408335B6823F4E3
:101BB000E00113469B0013449B0003440833596023
:101BC000264B1B680133254A1360244B1B68042BEA
:101BD00002D1224B00221A60224B1B69002B17D026
:101BE000214B1B68042B03D11F4B00221A6004E019
:101BF0001D4B1B6801331C4A13601A4B9868194B24
:101C0000D968184B1A69174B1B7DFFF70FFF1EE0B1
:101C10001349124B1A6813469B0013449B000B4454
:101C200008335B6803F4E003002B10D10B4B002258
:101C30001A600D4B00221A600A4B01221A70094BE0
:101C40005B68002B03D0074B5B6801209847BD46BB
:101C5000BDE891408546704700002842246200207C
:101C6000004001400862002020620020684620F009
:101C700007018D4681B583B000AF384B1B683B60D0
:101C80003B6803F470633B603B68002B2FD0344902
:101C9000344B1A6813469B001344DB010B4403F5D5
:101CA00002731B68002B0AD02F4B02221A702E4B96
:101CB0005B68002B03D02C4B5B68022098472849B7
:101CC000284B1A6813469B001344DB010B4403F5B1
:101CD00002735B68002B0AD0234B03221A70224B3D
:101CE0005B68002B03D0204B5B68032098471B4B9D
:101CF0001B683B603B6803F470433B603B68002B10
:101D00000AD0194B04221A70174B5B68002B03D0C2
:101D1000154B5B680420984700237B6014E0104952
:101D20007A6813469B001344DB010B4403F5E4730C
:101D300001221A600A4A7B6803F52873012142F8E0
:101D400023107B6801337B607B68032BE7D90C375A
:101D5000BD46BDE881408546704700BF0040014058
:101D600000002842246200200862002080B586B06E
:101D700000AFF860B96011461A460B46FB80134667
:101D80007B71FB68002B00D100BE7B79072B00D94B
:101D900000BEFB88B3F5005F00D300BEFB68002BDC
:101DA00069D07B79072B66D8FB88B3F5005F62D2D8
:101DB000BB6803F10802FB88DBB210461946FFF747
:101DC00004FBBB6803F10C017B79FA8802F47F42C3
:101DD0005211134308461946FFF7F7FAFB68BA6831
:101DE0001A60FB681B6808331846FFF7F0FA0346D1
:101DF000BB82FB681B680C331846FFF7E8FA034602
:101E0000FB74FB7C23F00703BB74BB7C9BB25B01C0
:101E10009AB2BB8A1343BB82FB7C03F00703FB74BB
:101E2000BA8AFB889A4200D000BEFA7C7B799A423B
:101E300000D000BEFB681B6810331846FFF7C7FAD6
:101E4000034603F00203FB750FE0FB681B680433D5
:101E50001846FFF7BCFAFB681B6810331846FFF7FB
:101E6000B6FA034603F00203FB75FB7D002BECD1B1
:101E7000FB6800221A711837BD4680BD80B586B058
:101E800000AFF860B9607A60FB68002B00D100BE3B
:101E9000BB68002B00D100BE7B68002B00D100BEC8
:101EA000FB68002B26D0BB68002B23D07B68002B5F
:101EB00020D000237B6119E0FB681B6810331846B3
:101EC000FFF785FA034603F00103FB74FB7C002B4C
:101ED000F2D0FB681968BA687B6913441B7808461E
:101EE0001946FFF772FA7B6901337B617A697B6877
:101EF0009A42E1D31837BD4680BD00BF90B589B086
:101F000000AFF860B9607A600023BB61FB68002B0A
:101F100000D100BEBB68002B00D100BE7B68002B47
:101F200000D100BEFB68002B43D0BB68002B40D023
:101F30007B68002B3DD00023BB61FB681B6810331E
:101F40001846FFF744FA0346FB75FB681A79FB7DD8
:101F50001343DAB2FB681A71FB7D03F00203FB77CF
:101F600020E0BA68BB69D418FB681B6804331846C4
:101F7000FFF72DFA03462370BB690133BB61FB6891
:101F80001B6810331846FFF722FA0346FB75FB68FF
:101F90001A79FB7D1343DAB2FB681A71FB7D03F0FB
:101FA0000203FB77FB7F002B03D0BA697B689A4260
:101FB000D7D3BB6918462437BD4690BD80B586B0DF
:101FC00000AFF860B96011461A460B46FB71134624
:101FD000BB71BB797B61FFF7C1F93861F8680021FB
:101FE0006C2201F0A1FEFB68BA681A60FB795A0006
:101FF000FB685A60FB681B681846062140220023D4
:10200000FFF7E7F9FB681B68184606214022012309
:10201000FFF7DFF9FB681A687B699B0803F001038F
:10202000104607218022FFF7D4F9FB681A687B6904
:102030005B0803F00103104601210222FFF7C9F9F2
:10204000FB681A687B6903F0010310460021012236
:10205000FFF7BFF9FB681B6803F10C02FB685B68C4
:1020600010461946FFF7B1F9FB681B6803F11C0223
:10207000FB685B6810461946FFF7A7F93869FFF758
:1020800071F91837BD4680BD80B586B000AFF860E5
:102090007A601A460B46FB7213463B81FFF75EF9E6
:1020A0007861FB681B7B002B02D1FB6801221A734D
:1020B000FB68012283F86A20FB7A5A00FB689A6069
:1020C000FB6800225A62FB687A689A613A89FB6869
:1020D000DA61FB6800221A62FB68012283F834206F
:1020E000FB6897F820201A75FB6893F85430DBB230
:1020F000012B04D1FB68012283F8692007E0FB680B
:102100001B681846052120220123FFF762F9FB68AE
:1021100093F86830012B07D1FB681B681846032130
:1021200008220023FFF755F9FB681B6804331846A3
:10213000FFF74DF90346FB74F86800F0B9FD7869C4
:10214000FFF710F91837BD4680BD00BF80B586B0D7
:1021500000AFF8607A601A460B46FB7213463B816B
:10216000FFF7FCF87861FB681B7B002B02D1FB6852
:1021700002221A73FB68022283F86A20FB7A5A0053
:10218000FB689A60FB6801225A62FB687A689A626F
:102190003A89FB68DA62FB6800221A63FB68012255
:1021A00083F83420FB6897F820201A75FB6893F8B1
:1021B0005430DBB2012B04D1FB68012283F8692083
:1021C00007E0FB681B681846052120220123FFF762
:1021D00000F9FB6893F86830012B07D1FB681B6896
:1021E0001846032108220023FFF7F3F8FB681B6859
:1021F00004331846FFF7EBF80346FB74F86800F069
:1022000057FD7869FFF7AEF81837BD4680BD00BFAF
:1022100080B485B000AF78607B6893F83430FB738E
:10222000FB7B18461437BD465DF8047B704700BF42
:1022300080B584B000AF78603960FFF78FF8F86040
:102240007B683A689A63F868FFF78CF87B6893F8C4
:102250003430FB72FB7A012BF8D0FB7A184610372A
:10226000BD4680BD80B584B000AF786039607B68C2
:102270009B6B002B1FD07B689A6B3B689A4206D9F8
:102280007B689A6B3B68D21A7B689A6313E0FFF70E
:1022900065F8F8607B68032283F834207B680022AD
:1022A0001A737B68002283F86920F868FFF75AF8F0
:1022B0007B6800229A631037BD4680BD80B582B02E
:1022C00000AF78607B6893F86030002B07D07B68A4
:1022D0001B681846022104220123FFF77AF8083709
:1022E000BD4680BD90B585B000AF78600123FB731B
:1022F0007B681B6804331846FFF769F80346FB72D6
:10230000FB7ADBB2083BD82B00F2648401A252F8BE
:1023100023F000BF79260020D52B0020D52B0020EC
:10232000D52B0020D52B0020D52B0020D52B00202D
:10233000D52B002079260020D52B0020D52B00207E
:10234000D52B0020D52B0020D52B0020D52B00200D
:10235000D52B00202F270020D52B0020D52B0020A7
:10236000D52B0020D52B0020D52B0020D52B0020ED
:10237000D52B002009270020D52B0020D52B0020AD
:10238000D52B0020D52B0020D52B0020D52B0020CD
:10239000D52B00202F270020D52B0020D52B002067
:1023A000D52B0020D52B0020D52B0020D52B0020AD
:1023B000D52B0020CB270020D52B0020D52B0020AB
:1023C000D52B0020D52B0020D52B0020D52B00208D
:1023D000D52B0020F7260020D52B0020D52B002060
:1023E000D52B0020D52B0020D52B0020D52B00206D
:1023F000D52B0020F1270020D52B0020D52B002045
:10240000D52B0020D52B0020D52B0020D52B00204C
:10241000D52B002057280020D52B0020D52B0020BD
:10242000D52B0020D52B0020D52B0020D52B00202C
:10243000D52B00207D280020D52B0020D52B002077
:10244000D52B0020D52B0020D52B0020D52B00200C
:10245000D52B0020BF280020D52B0020D52B002015
:10246000D52B0020D52B0020D52B0020D52B0020EC
:10247000D52B002069290020D52B0020D52B00204A
:10248000D52B0020D52B0020D52B0020D52B0020CC
:10249000D52B00205F290020D52B0020D52B002034
:1024A000D52B0020D52B0020D52B0020D52B0020AC
:1024B000D52B002069290020D52B0020D52B00200A
:1024C000D52B0020D52B0020D52B0020D52B00208C
:1024D000D52B00205F290020D52B0020D52B0020F4
:1024E000D52B0020D52B0020D52B0020D52B00206C
:1024F000D52B0020B1290020D52B0020D52B002082
:10250000D52B0020D52B0020D52B0020D52B00204B
:10251000D52B002023290020D52B0020D52B0020EF
:10252000D52B0020D52B0020D52B0020D52B00202B
:10253000D52B0020B1290020D52B0020D52B002041
:10254000D52B0020D52B0020D52B0020D52B00200B
:10255000D52B002023290020D52B0020D52B0020AF
:10256000D52B0020D52B0020D52B0020D52B0020EB
:10257000D52B0020172A0020D52B0020D52B00209A
:10258000D52B0020D52B0020D52B0020D52B0020CB
:10259000D52B0020E92A0020D52B0020D52B0020A8
:1025A000D52B0020D52B0020D52B0020D52B0020AB
:1025B000D52B0020E92A0020D52B0020D52B002088
:1025C000D52B0020D52B0020D52B0020D52B00208B
:1025D000D52B0020E92A0020D52B0020D52B002068
:1025E000D52B0020D52B0020D52B0020D52B00206B
:1025F000D52B0020952B0020D52B0020D52B00209B
:10260000D52B0020D52B0020D52B0020D52B00204A
:10261000D52B0020952B0020D52B0020D52B00207A
:10262000D52B0020D52B0020D52B0020D52B00202A
:10263000D52B0020D52B0020D52B0020D52B00201A
:10264000D52B0020D52B0020D52B0020D52B00200A
:10265000D52B0020C12A0020D52B0020D52B00200F
:10266000D52B0020D52B0020D52B0020D52B0020EA
:10267000D52B00201D2C00207B681B6818460521E7
:1026800020220023FEF7A5FE7B681B6803F10802E9
:102690007B689B6810461946FEF797FE7B681B68AF
:1026A00003F108027B685B6A104600210122FEF7F5
:1026B00090FE7B685B6A002B03D17B6800221A6264
:1026C00002E07B6800221A637B6893F86930002B74
:1026D00003D07B68002283F869207B681A7B7B68C3
:1026E00093F86A309A4205D07B6893F86A207B6839
:1026F0001A7394E293E27B681B6818460521202236
:102700000123FEF766FE8AE27B681B6818460421F7
:1027100010220123FEF75DFE7B68022283F834203D
:102720007B6800221A737868FFF7C8FD77E27B6840
:102730001A6A7B68DB699A4211D27B681B6803F1D5
:1027400008047B689A697B681B6A581C7968086270
:1027500013441B7820461946FEF737FE34E07B68A9
:102760001B7B032B0BD17B6801225A627B681B68A1
:102770001846052120220123FEF72BFE24E07B686A
:1027800000221A737B681B7D03F00103BB737B6817
:10279000BA7B83F86820BB7B002B0BD17B681B685E
:1027A0001846042110220123FEF713FE7868FFF774
:1027B00085FD04E0786800F08BFA0023FB737B68EA
:1027C000002283F834202AE229E27B681B6818463D
:1027D000042110220123FEF7FCFD7B68022283F80E
:1027E00034207B6800221A737868FFF767FD16E2D1
:1027F0007B68DB6A012B08D97B681B6818460221BD
:1028000004220123FEF7E5FD24E07B68DB6A012B4F
:1028100008D17B681B681846022104220023FEF7BA
:10282000D8FD17E07B681B681846022104220123AB
:10283000FEF7CFFD7B681B68184604211022012398
:10284000FEF7C7FD7B68002283F834207B680022F6
:102850001A73E4E1E3E17B681B6818460421102247
:102860000123FEF7B6FD7B68022283F834207B68E3
:1028700000221A737868FFF721FDD0E17B689A6A1D
:102880007B681B6B581C79680863D4187B681B68CD
:1028900008331846FEF79BFD034623707B681A6BCE
:1028A0007B68DB6A013B9A4208D37B681B68184649
:1028B000022104220023FEF78CFDB0E1AFE17B682A
:1028C0009A6A7B681B6BD4187B681B6808331846B0
:1028D000FEF77DFD034623707B681B7D03F001033B
:1028E000BB737B68BA7B83F86820BB7B002B0BD162
:1028F0007B681B681846042110220123FEF769FD3E
:102900007868FFF7DBFC04E0786800F0E1F9002369
:10291000FB737B6800221A737B68002283F83420E3
:102920007DE17B681B681846022104220123FEF723
:1029300050FD7B6800221A737B68002283F85420C4
:102940007B6893F86930002B08D07B681B681846B9
:10295000052120220123FEF73CFD60E15FE17B6859
:10296000012283F869205AE17B6804221A737B688C
:1029700000221A657B6800221A617B681B68184672
:1029800005212022FEF733FD0346002B0BD07B6888
:102990001B681846052120220023FEF71AFD7B68DC
:1029A000012283F869207B68012283F8542036E1F4
:1029B0007B689B6C002B1ED07B681A6D7B68DB6C80
:1029C0009A4218D27B681B6808331846FEF7FFFC52
:1029D00003467B737B689A6C7B681B6D581C796817
:1029E000086513447A7B1A707B681B691A027B7B2B
:1029F0001A447B681A617B681A6D7B68DB6C9A42AB
:102A000008D37B681B681846022104220023FEF7C6
:102A1000E0FC04E103E17B681B7B042B35D17B6880
:102A20001A6D7B689B6D9A4203D17B681A697B683B
:102A30005A647B68DB6D002B1ED07B68DB6D7A6887
:102A4000916C7A68126D92B27868984703463B732E
:102A50003B7B002B03D17868FFF730FC1BE07B68E1
:102A60001B681846022104220023FEF7B2FC7B6893
:102A7000002283F860200EE07B681B681846022164
:102A800004220123FEF7A5FC05E07B6800225A64BE
:102A90007868FFF713FC7B68002283F854207B687A
:102AA00093F86930002B07D07B681B681846052116
:102AB00020220123FEF78DFC7B6800221A73AEE012
:102AC0007B6800221A737B6800225A647B6893F843
:102AD0005430DBB2012B03D17B68022283F85420EF
:102AE0007868FFF7EBFB9AE0FB7ADBB2A82B1FD1EB
:102AF0007B6805221A737B6800221A617B680122B9
:102B000083F854207B681B68184605212022FEF7B5
:102B10006EFC0346002B0BD07B681B681846052112
:102B200020220023FEF755FC7B68012283F86920F0
:102B30007B685A6C7B681B6C9A4207D37B681B6866
:102B400008331846FF21FEF740FC10E07B681B6845
:102B500003F108047B68DA6B7B685B6C581C79684E
:102B6000486413441B7820461946FEF72EFC7B6808
:102B70005A6C7B681B6C9A420BD37B681B681846A7
:102B8000022104220023FEF724FC7B6800225A6401
:102B900045E044E07B6800225A647B681B68184665
:102BA000022104220123FEF714FC7B68002283F833
:102BB00054207B6893F86930002B07D07B681B6832
:102BC0001846052120220123FEF703FC7B68002222
:102BD0001A7324E07B681B68184605212022002315
:102BE000FEF7F7FB7B6800221A737B6800225A64A9
:102BF0007B6893F83430DBB2012B03D17B6802226F
:102C000083F834207B6893F85430DBB2012B04D175
:102C10007B68022283F8542001E000E000BFFB7BC8
:102C2000002B07D07B681B6818460321082200236D
:102C3000FEF7CFFB7B681B6804331846FEF7C7FB23
:102C40000346FB721437BD4690BD00BF80B483B00D
:102C500000AF0346FB71084997F907305B09FA7921
:102C600002F01F02012000FA02F241F823200C3783
:102C7000BD465DF8047B704700E100E080B483B09E
:102C800000AF0346FB71094997F907305B09FA79F0
:102C900002F01F02012000FA02F2203341F8232043
:102CA0000C37BD465DF8047B704700BF00E100E0D3
:102CB00080B582B000AF78607B68044A934202D14D
:102CC0002220FFF7C3FF0837BD4680BD9862002071
:102CD00080B582B000AF78607B68044A934202D12D
:102CE0002220FFF7CBFF0837BD4680BD9862002049
:102CF00080B483B000AF78604FF0FF3318460C37D4
:102D0000BD465DF8047B704780B483B000AF786047
:102D1000FEE700BF80B483B000AF786039603B68E5
:102D20004FF400525A60002318460C37BD465DF838
:102D3000047B704780B483B000AF786001231846ED
:102D40000C37BD465DF8047B704700BF80B485B08A
:102D500000AFF860B9607A60002318461437BD46AA
:102D60005DF8047B704700BF80B485B000AFF860A9
:102D7000B9607A60002318461437BD465DF8047BBD
:102D8000704700BF80B485B000AFF860B9607A606A
:102D90003B60002318461437BD465DF8047B70473E
:102DA00080B586B000AF78601F4B1B68002B02D146
:102DB0001D4B1E4A1A601C4B1B687B61EFF3088396
:102DC0003B61194B1A683B699A420FD2164B1A683D
:102DD0007B681A443B699A421AD900200121144A9F
:102DE0001923FFF7CFFF0120FFF78EFF114BFB6088
:102DF0000D4B1A687B681A44FB689A4208D9002078
:102E000001210D4A1923FFF7BDFF0120FFF77CFFC9
:102E1000054B1A687B681344034A13607B691846A4
:102E20001837BD4680BD00BF2862002050630020D7
:102E3000EC5F002000F000200860002080B500AFAB
:102E400000F030F8044A044B5B6943F400735361AB
:102E5000FDF7F0FA80BD00BF00ED00E080B483B064
:102E600000AF0E4BD3F84C313B603B684FF602028B
:102E7000934203D00A4A934203D005E001237B60CA
:102E800005E002237B6002E000237B6000BF7B68DB
:102E900018460C37BD465DF8047B70470080034040
:102EA00002F8010080B582B000AFFFF7D7FF78606D
:102EB0007B68012B00D002E000F004F800BF083767
:102EC000BD4680BD80B400AF094A094BD3F89830A5
:102ED00043F48073C2F89830054A054BD3F8983014
:102EE00023F08063C2F89830BD465DF8047B7047DC
:102EF0000080034081F0004102E000BF83F0004306
:102F000030B54FEA41044FEA430594EA050F08BF84
:102F100090EA020F1FBF54EA000C55EA020C7FEA48
:102F2000645C7FEA655C00F0E2804FEA5454D4EBC5
:102F30005555B8BF6D420CDD2C4480EA020281EA8F
:102F4000030382EA000083EA010180EA020281EAC7
:102F50000303362D88BF30BD11F0004F4FEA013119
:102F60004FF4801C4CEA113102D0404261EB410128
:102F700013F0004F4FEA03334CEA133302D05242AE
:102F800063EB430394EA050F00F0A780A4F101046A
:102F9000D5F1200E0DDB02FA0EFC22FA05F28018A4
:102FA00041F1000103FA0EF2801843FA05F359418A
:102FB0000EE0A5F120050EF1200E012A03FA0EFC09
:102FC00028BF4CF0020C43FA05F3C01851EBE37133
:102FD00001F0004507D54FF0000EDCF1000C7EEB50
:102FE00000006EEB0101B1F5801F1BD3B1F5001F8E
:102FF0000CD349085FEA30004FEA3C0C04F10104AD
:103000004FEA445212F5800F80F09A80BCF1004FD5
:1030100008BF5FEA500C50F1000041EB045141EA57
:10302000050130BD5FEA4C0C404141EB010111F458
:10303000801FA4F10104E9D191F0000F04BF014603
:103040000020B1FA81F308BF2033A3F10B03B3F1E1
:1030500020020CDA0C3208DD02F1140CC2F10C0271
:1030600001FA0CF021FA02F10CE002F11402D8BFCF
:10307000C2F1200C01FA02F120FA0CFCDCBF41EA9B
:103080000C019040E41AA2BF01EB0451294330BD6A
:103090006FEA04041F3C1CDA0C340EDC04F1140447
:1030A000C4F1200220FA04F001FA02F340EA03001E
:1030B00021FA04F345EA030130BDC4F10C04C4F164
:1030C000200220FA02F001FA04F340EA0300294644
:1030D00030BD21FA04F0294630BD94F0000F83F48E
:1030E000801306BF81F480110134013D4EE77FEA71
:1030F000645C18BF7FEA655C29D094EA050F08BFBD
:1031000090EA020F05D054EA000C04BF194610469D
:1031100030BD91EA030F1EBF0021002030BD5FEAE1
:10312000545C05D14000494128BF41F0004130BD09
:1031300014F580043CBF01F5801130BD01F000455D
:1031400045F0FE4141F470014FF0000030BD7FEAD0
:10315000645C1ABF194610467FEA655C1CBF0B46CB
:10316000024650EA013406BF52EA033591EA030FE2
:1031700041F4002130BD00BF90F0000F04BF0021DA
:10318000704730B54FF4806404F132044FF000050D
:103190004FF0000150E700BF90F0000F04BF002186
:1031A000704730B54FF4806404F1320410F00045EC
:1031B00048BF40424FF000013EE700BF42004FEAE7
:1031C000E2014FEA31014FEA02701FBF12F07F4364
:1031D00093F07F4F81F06051704792F0000F14BF61
:1031E00093F07F4F704730B54FF4607401F00045A5
:1031F00021F0004120E700BF50EA010208BF7047FC
:1032000030B54FF000050AE050EA010208BF7047F0
:1032100030B511F0004502D5404261EB41014FF459
:10322000806404F132045FEA915C3FF4DCAE4FF05D
:1032300003025FEADC0C18BF03325FEADC0C18BF44
:10324000033202EBDC02C2F1200300FA03FC20FA95
:1032500002F001FA03FE40EA0E0021FA02F11444E2
:10326000C1E600BF70B54FF0FF0C4CF4E06C1CEAF7
:1032700011541DBF1CEA135594EA0C0F95EA0C0F6C
:1032800000F0DEF82C4481EA030621EA4C5123EADF
:103290004C5350EA013518BF52EA033541F480110E
:1032A00043F4801338D0A0FB02CE4FF00005E1FBC1
:1032B00002E506F00042E0FB03E54FF00006E1FB0B
:1032C00003569CF0000F18BF4EF0010EA4F1FF044E
:1032D000B6F5007F64F5407404D25FEA4E0E6D418E
:1032E00046EB060642EAC62141EA55514FEAC5209F
:1032F00040EA5E504FEACE2EB4F1FD0C88BFBCF51B
:10330000E06F1ED8BEF1004F08BF5FEA500E50F1CB
:10331000000041EB045170BD06F0004646EA010191
:1033200040EA020081EA0301B4EB5C04C2BFD4EBC3
:103330000C0541EA045170BD41F480114FF0000EBC
:10334000013C00F3AB8014F1360FDEBF002001F02A
:10335000004170BDC4F10004203C35DA0C341BDCA4
:1033600004F11404C4F1200500FA05F320FA04F076
:1033700001FA05F240EA020001F0004221F00041AA
:1033800010EBD37021FA04F642EB06015EEA430E1D
:1033900008BF20EAD37070BDC4F10C04C4F120054D
:1033A00000FA04F320FA05F001FA04F240EA020000
:1033B00001F0004110EBD37041F100015EEA430ED1
:1033C00008BF20EAD37070BDC4F1200500FA05F2F1
:1033D0004EEA020E20FA04F301FA05F243EA020370
:1033E00021FA04F001F0004121FA04F220EA02007F
:1033F00000EBD3705EEA430E08BF20EAD37070BDC5
:1034000094F0000F0FD101F00046400041EB0101A4
:1034100011F4801F08BF013CF7D041EA060195F086
:10342000000F18BF704703F00046520043EB030340
:1034300013F4801F08BF013DF7D043EA060370472D
:1034400094EA0C0F0CEA135518BF95EA0C0F0CD038
:1034500050EA410618BF52EA4306D1D181EA03017E
:1034600001F000414FF0000070BD50EA410606BF78
:103470001046194652EA430619D094EA0C0F02D1BD
:1034800050EA013613D195EA0C0F05D152EA033602
:103490001CBF104619460AD181EA030101F0004120
:1034A00041F0FE4141F470014FF0000070BD41F069
:1034B000FE4141F4780170BD70B54FF0FF0C4CF443
:1034C000E06C1CEA11541DBF1CEA135594EA0C0F62
:1034D00095EA0C0F00F0A7F8A4EB050481EA030EAF
:1034E00052EA03354FEA013100F088804FEA033396
:1034F0004FF0805545EA131343EA12634FEA022264
:1035000045EA111545EA10654FEA00260EF0004124
:103510009D4208BF964244F1FD0404F5407402D276
:103520005B084FEA3202B61A65EB03055B084FEA07
:1035300032024FF480104FF4002CB6EB020E75EB04
:10354000030E22BFB61A754640EA0C005B084FEA2C
:103550003202B6EB020E75EB030E22BFB61A7546A9
:1035600040EA5C005B084FEA3202B6EB020E75EBF4
:10357000030E22BFB61A754640EA9C005B084FEA6C
:103580003202B6EB020E75EB030E22BFB61A754679
:1035900040EADC0055EA060E18D04FEA051545EA68
:1035A00016754FEA06164FEAC30343EA52734FEA11
:1035B000C2025FEA1C1CC0D111F4801F0BD141EA8A
:1035C00000014FF000004FF0004CB6E711F4801FEF
:1035D00004BF01430020B4F1FD0C88BFBCF5E06FCF
:1035E0003FF6AFAEB5EB030C04BFB6EB020C5FEADF
:1035F000500C50F1000041EB045170BD0EF0004E34
:103600004EEA113114EB5C04C2BFD4EB0C0541EA65
:10361000045170BD41F480114FF0000E013C90E662
:1036200045EA060E8DE60CEA135594EA0C0F08BF26
:1036300095EA0C0F3FF43BAF94EA0C0F0AD150EA25
:1036400001347FF434AF95EA0C0F7FF425AF1046B8
:1036500019462CE795EA0C0F06D152EA03353FF4E0
:10366000FDAE1046194622E750EA410618BF52EA5D
:1036700043067FF4C5AE50EA41047FF40DAF52EA31
:1036800043057FF4EBAE12E74FEA4102B2F1E043AB
:1036900024BFB3F5001CDCF1FE5C0DD901F0004C39
:1036A0004FEAC0024CEA5070B2F1004F40EB830089
:1036B00008BF20F00100704711F0804F21D113F1B5
:1036C0003872BCBF01F00040704741F480114FEAEE
:1036D0005252C2F11802C2F1200C10FA0CF320FA77
:1036E00002F018BF40F001004FEAC1234FEAD32394
:1036F00003FA0CFC40EA0C0023FA02F34FEA4303FE
:10370000CCE77FEA625307D150EA01331EBF4FF086
:10371000FE4040F44000704701F0004040F0FE40A1
:1037200040F40000704700BF80F0004002E000BF9E
:1037300081F0004142001FBF5FEA410392EA030F9C
:103740007FEA226C7FEA236C6AD04FEA1262D2EBE6
:103750001363C1BFD218414048404140B8BF5B42EB
:10376000192B88BF704710F0004F40F4000020F084
:103770007F4018BF404211F0004F41F4000121F09A
:103780007F4118BF494292EA030F3FD0A2F10102E4
:1037900041FA03FC10EB0C00C3F1200301FA03F122
:1037A00000F0004302D5494260EB4000B0F5000F45
:1037B00013D3B0F1807F06D340084FEA310102F104
:1037C0000102FE2A51D2B1F1004F40EBC25008BFB6
:1037D00020F0010040EA03007047490040EB000080
:1037E00010F4000FA2F10102EDD1B0FA80FCACF1AF
:1037F000080CB2EB0C0200FA0CF0AABF00EBC250AE
:1038000052421843BCBFD0401843704792F0000F9B
:1038100081F4000106BF80F400000132013BB5E7EE
:103820004FEA41037FEA226C18BF7FEA236C21D064
:1038300092EA030F04D092F0000F08BF08467047C9
:1038400090EA010F1CBF0020704712F07F4F04D197
:10385000400028BF40F00040704712F100723CBFAA
:1038600000F50000704700F0004343F0FE4040F4D4
:10387000000070477FEA226216BF08467FEA236392
:103880000146420206BF5FEA412390EA010F40F47D
:10389000800070474FF0000304E000BF10F00043C9
:1038A00048BF40425FEA000C08BF704743F09643B0
:1038B00001464FF000001CE050EA010208BF7047CB
:1038C0004FF000030AE000BF50EA010208BF704752
:1038D00011F0004302D5404261EB41015FEA010C67
:1038E00002BF84460146002043F0B64308BFA3F15F
:1038F0008053A3F50003BCFA8CF2083AA3EBC25341
:1039000010DB01FA02FC634400FA02FCC2F120025F
:10391000BCF1004F20FA02F243EB020008BF20F096
:103920000100704702F1200201FA02FCC2F12002FC
:1039300050EA4C0021FA02F243EB020008BF20EAF1
:10394000DC7070474FF0FF0C1CEAD0521EBF1CEA1F
:10395000D15392EA0C0F93EA0C0F6FD01A4480EA0D
:10396000010C400218BF5FEA41211ED04FF00063F6
:1039700043EA501043EA5111A0FB01310CF0004022
:10398000B1F5000F3EBF490041EAD3715B0040EA48
:10399000010062F17F02FD2A1DD8B3F1004F40EB18
:1039A000C25008BF20F00100704790F0000F0CF0EB
:1039B000004C08BF49024CEA502040EA51207F3AAF
:1039C000C2BFD2F1FF0340EAC250704740F400008A
:1039D0004FF00003013A5DDC12F1190FDCBF00F07B
:1039E00000407047C2F10002410021FA02F1C2F129
:1039F000200200FA02FC5FEA310040F1000053EAC5
:103A00004C0308BF20EADC70704792F0000F00F012
:103A1000004C02BF400010F4000F013AF9D040EA18
:103A20000C0093F0000F01F0004C02BF490011F4AC
:103A3000000F013BF9D041EA0C018FE70CEAD153AA
:103A400092EA0C0F18BF93EA0C0F0AD030F0004C2A
:103A500018BF31F0004CD8D180EA010000F00040DE
:103A6000704790F0000F17BF90F0004F084691F09C
:103A7000000F91F0004F14D092EA0C0F01D14202D6
:103A80000FD193EA0C0F03D14B0218BF084608D19F
:103A900080EA010000F0004040F0FE4040F40000E9
:103AA000704740F0FE4040F4400070474FF0FF0C7C
:103AB0001CEAD0521EBF1CEAD15392EA0C0F93EAC3
:103AC0000C0F69D0A2EB030280EA010C49024FEA15
:103AD000402037D04FF0805343EA111143EA1013CE
:103AE0000CF000408B4238BF5B0042F17D024FF486
:103AF000000C8B4224BF5B1A40EA0C00B3EB510F61
:103B000024BFA3EB510340EA5C00B3EB910F24BF49
:103B1000A3EB910340EA9C00B3EBD10F24BFA3EBCE
:103B2000D10340EADC001B0118BF5FEA1C1CE0D196
:103B3000FD2A3FF650AF8B4240EBC25008BF20F049
:103B4000010070470CF0004C4CEA50207F32C2BF9D
:103B5000D2F1FF0340EAC250704740F400004FF03A
:103B60000003013A37E792F0000F00F0004C02BF6B
:103B7000400010F4000F013AF9D040EA0C0093F035
:103B8000000F01F0004C02BF490011F4000F013B8F
:103B9000F9D041EA0C0195E70CEAD15392EA0C0FF7
:103BA00008D142027FF47DAF93EA0C0F7FF470AF2F
:103BB000084676E793EA0C0F04D14B023FF44CAF72
:103BC00008466EE730F0004C18BF31F0004CCAD107
:103BD00030F000427FF45CAF31F000437FF43CAF43
:103BE0005FE700BF4FF0FF3C06E000BF4FF0010C65
:103BF00002E000BF4FF0010C4DF804CD4FEA400247
:103C00004FEA41037FEA226C18BF7FEA236C11D090
:103C100001B052EA530C18BF90EA010F58BFB2EB43
:103C2000030088BFC81738BF6FEAE17018BF40F0C3
:103C3000010070477FEA226C02D15FEA402C05D177
:103C40007FEA236CE4D15FEA412CE1D05DF8040BFC
:103C5000704700BF844608466146FFE70FB5FFF78F
:103C6000C9FF002848BF10F1000F0FBD4DF808ED47
:103C7000FFF7F4FF0CBF012000205DF808FB00BF38
:103C80004DF808EDFFF7EAFF34BF012000205DF892
:103C900008FB00BF4DF808EDFFF7E0FF94BF0120DF
:103CA00000205DF808FB00BF4DF808EDFFF7D2FFDC
:103CB00094BF012000205DF808FB00BF4DF808ED1F
:103CC000FFF7C8FF34BF012000205DF808FB00BFEC
:103CD000014B1868704700BF946100200E4B70B50F
:103CE0001E460E4C0025E41AA410A54204D056F836
:103CF000253098470135F8E702F006FA084B094CE1
:103D00001E46E41AA4100025A54204D056F825301A
:103D100098470135F8E770BD206100202061002040
:103D2000206100202461002003460244934202D017
:103D300003F8011BFAE770470FB40A4B13B51C6870
:103D400024B1A36913B9204600F022FA05AB20463E
:103D5000A168049A019300F0B1FB02B0BDE81040E5
:103D600004B070479461002070B50E46054618B146
:103D700083690BB900F00CFAAC68A389190701D567
:103D8000236983B92846214600F0A8F858B14FF0BE
:103D9000FF3070BD002B0EDB236816F8012C1A7063
:103DA000236801332360A36816F8012B013BA3604D
:103DB000002AEFD116E0A269934209DB236816F8C6
:103DC000012C1A70236819780A29EAD1284602E0E2
:103DD000284616F8011C224600F02CF8421C5042DE
:103DE0005041D3E7002B15DAA269934208DB236820
:103DF0000A221A702368197891420FD1284601E0EF
:103E000028460A21224600F015F8431C5842584122
:103E100030B1BCE723680A221A702368013323609B
:103E20000A2070BD024B01461868FFF79DBF00BF16
:103E30009461002070B50D461446064618B183699A
:103E40000BB900F0A5F9224B9C4201D1746808E03F
:103E5000204B9C4201D1B46803E01F4B9C4208BF39
:103E6000F468A369A360A3891A0709D523693BB144
:103E700023682069EDB2181A636998420FDB08E0E5
:103E80003046214600F02AF80028F1D04FF0FF30EC
:103E900070BD3046214600F011F90028F6D1A36824
:103EA0000130013BA36023685A1C22601D706369C6
:103EB000984204D0A389DB0707D50A2D05D13046E7
:103EC000214600F0FBF80028E0D1284670BD00BF75
:103ED000246000204460002064600020314B70B5F5
:103EE0001D6806460C4625B1AB6913B9284600F09B
:103EF0004FF92D4B9C4201D16C6808E02B4B9C4242
:103F000001D1AC6803E02A4B9C4208BFEC68A3894E
:103F10009AB211071DD4D50602D40922326038E0C6
:103F2000500712D5616B41B104F14403994202D0AC
:103F3000304600F001FA00236363A38923F02403D1
:103F4000A3810023636023692360A38943F00803EE
:103F5000A38123694BB9A38903F42073B3F5007FD0
:103F600003D03046214600F09BF9A38913F00102EB
:103F700005D00022A26062695242A26103E0990763
:103F800058BF6269A26022694AB903F0800080B21A
:103F900030B143F04003A3814FF0FF3070BD0020EB
:103FA00070BD00BF946100202460002044600020A8
:103FB000646000208A892DE9F041054610070C460F
:103FC00057D44B68002B02DC0B6C002B18DDE66A23
:103FD000B6B102F48052002392B22F682B600AB16E
:103FE000626D10E0216A28460123B047411C024659
:103FF00009D12B683BB11D2B01D0162B46D12F6068
:104000000020BDE8F081A3895B0705D56368D21A5B
:10401000636B0BB1236CD21AE66A00232846216A2F
:10402000B047461CA38905D12A681AB11D2A01D0C0
:10403000162A19D1002262602269D904226004D5AF
:10404000421C01D12B6803B96065616B2F600029A8
:10405000D6D004F14403994202D0284600F06CF90E
:1040600000206063BDE8F08143F04003A381BDE818
:10407000F0810F69002FC3D093070E680CBF4B6906
:104080000023C7EB06080F608B6012E0A3894FF096
:10409000FF3043F04003A381BDE8F0812846216A48
:1040A0003A464346A66AB0470028EFDD0744C0EB16
:1040B0000808B8F1000FF1DCA2E7000038B50B6981
:1040C00005460C46DBB118B183690BB900F060F806
:1040D0000C4B9C4201D16C6808E00B4B9C4201D117
:1040E000AC6803E0094B9C4208BFEC68B4F90C30A3
:1040F0002BB128462146BDE83840FFF75BBF0020C2
:1041000038BD00BF246000204460002064600020AF
:10411000014900F0A7B800BFBD40002010B504461B
:10412000002303604360836081814366C281036131
:104130004361836119465C300822FFF7F5FD054BAA
:1041400024626362044BA362044BE362044B236367
:1041500010BD00BF194A00203B4A0020734A0020CE
:10416000974A002070B568234D1E5D430E4605F149
:10417000740100F025F9044640B1002180E84200B6
:104180000C30A06005F16802FFF7CEFD204670BD3F
:10419000836910B5044633BB8364C3640365124B63
:1041A000124A1B688262984204BF0123836100F0B7
:1041B0001FF86060204600F01BF8A060204600F069
:1041C00017F80421E06000226068FFF7A7FFA068ED
:1041D00009210122FFF7A2FFE06812210222FFF766
:1041E0009DFF0123A36110BD20600020114100202C
:1041F000F8B51B4B07461E68B36913B93046FFF785
:10420000C7FF4836B4687368013B04D4B4F90C5056
:1042100075B16834F8E733682BB938460421FFF7E5
:10422000A1FF306008B13668ECE70C233B60F8BDB5
:104230004FF6FF73E3810123A38165662560A560C6
:10424000656025616561A56104F15C00294608226D
:10425000FFF76AFD6563A563A564E5642046F8BDC4
:10426000206000202DE9F8438046894600F148048B
:10427000002694B1A5686768013F0CD4AB89012B77
:1042800007D9B5F90E30013303D040462946C84757
:1042900006436835F0E72468EBE73046BDE8F8836D
:1042A000F0B58B8991B09D0706460C4625D4B1F92F
:1042B0000E10002908DAA389002513F0800F14BF1F
:1042C00040274FF480670DE001AA00F0F9FB0028B9
:1042D000F1DB029D4FF4806705F47045A5F50051B0
:1042E0004D424D413046394600F06AF860B9A38925
:1042F0009A051DD443F00203A38104F14703236010
:1043000023610123636113E00A4BB362A389206038
:1043100043F08003A381206167614DB13046B4F959
:104320000E1000F0DFFB18B1A38943F00103A38155
:1043300011B0F0BD1141002030B500293CD051F83A
:10434000042C0B1F1D49002AB8BF9B180A680C4695
:1043500012B95A600B6030BD93420DD219685818DB
:10436000904201BF5A5852181A60426823605A603E
:1043700030BD994203D80A4651680029F9D1146822
:1043800015199D420AD11B682344D0188842136036
:1043900012D10868034413604B680CE002D90C2367
:1043A000036030BD1C681819884201BF086849685D
:1043B000001918605960536030BD00BF30620020A2
:1043C00070B5CC1C24F0030408340C2C38BF0C242A
:1043D000002C064603DA0C233360002070BD8C42AB
:1043E000F9D3204A136810461946A1B10A68121B76
:1043F0000ED40B2A03D90A608B188C501FE08B4215
:104400000BBF5A684A6802605A6018BF0B4616E034
:104410000B464968E9E7144D2B681BB9304600F09C
:10442000EBFA28603046214600F0E6FA421C0346CB
:10443000D1D0C51C25F0030585420AD11C6003F1CB
:104440000B001A1D20F00700821A0AD05142995021
:1044500070BD3046E91A00F0CFFA0130BBD02B46D0
:10446000ECE770BD306200202C620020936810B52C
:10447000013B002B936009DA9469A34202DBCBB2C3
:104480000A2B03D1BDE81040FFF7D4BC1368581CB9
:1044900010601970C8B210BDF8B506460F46144634
:1044A000D518AC4208D0304614F8011B3A46FFF745
:1044B000DDFF431CF5D100E00020F8BD2DE9F043FD
:1044C0009DB00D4690460393064618B183690BB91B
:1044D000FFF75EFE754B9D4201D1756808E0744B95
:1044E0009D4201D1B56803E0724B9D4208BFF5685B
:1044F000AB891C070AD52B6943B1002309932023FC
:104500008DF8293030238DF82A3041E03046294695
:10451000FFF7E4FC0028F0D04FF0FF30C2E0039A30
:104520000134111D12680391002ABBBF524243F0AF
:10453000020307920792B8BF049323782E2B7BD0F7
:10454000DFF8808121784046032200F0EDFA38B18F
:10455000049AC8EB000040238340134304930134C2
:1045600021785548062204F101088DF8281000F042
:10457000DBFA002800F08580504B002B78D1039B9C
:10458000073323F0070308330393099B3B44099344
:1045900043461C4613F8012B1AB9B4EB08090ED098
:1045A00002E0252AF5D1F8E73046294642464B4637
:1045B000FFF772FF013070D0099B4B4409932378B9
:1045C000002B6AD000234FF0FF320493079305922B
:1045D00006938DF853301A9304F101084446DFF82E
:1045E000E89021784846052200F09EFA08F101087B
:1045F000049B30B1C9EB00000122824013430493B5
:10460000ECE7D80644BF20228DF85320190744BF99
:104610002B228DF8532022782A2A80D0234607990E
:104620001C4622780133303A092A03D80A2000FBBD
:104630000121F5E7079180E763782A2B0AD1039BD4
:1046400002341A1D1B680392002BB8BF4FF0FF33D2
:10465000059375E7611C00220C4623780131303B3D
:10466000092B03D80A2000FB0232F5E7059267E721
:1046700003AB0093304604A92A46114BAFF30080E8
:1046800007E003AB0093304604A92A460C4B00F028
:1046900093F8421C07467FF478AFAB895B063FF581
:1046A0003BAF09981DB0BDE8F08300BF2460002037
:1046B00044600020646000208E6000200000000044
:1046C000994400208A600020846000202DE9F8438E
:1046D00091461F468A680B6906469342B8BF134647
:1046E000C9F8003091F843200C46DDF8208012B163
:1046F0000133C9F800302368990642BFD9F8003069
:104700000233C9F80030256815F006051CD094F86E
:1047100043302268003318BF012392061FD5E118E9
:10472000302081F843005A1C94F84510224402338B
:1047300082F8431013E03046394604F11902012390
:10474000C047013007D00135E368D9F800209B1A33
:104750009D42F0DBDBE74FF0FF30BDE8F8833046E9
:10476000394604F14302C0470130F4D02268D9F839
:104770000050E36802F00602042A08BF5D1B2269AC
:10478000A3680CBF25EAE57500259342C4BF9B1AB8
:10479000ED184FF00009A9450ADA3046394604F110
:1047A0001A020123C0470130D5D009F10109F2E70F
:1047B0000020BDE8F88300002DE9FF410C461746B4
:1047C000227E98466E2A06460A9B01F1430100F0BC
:1047D000B08012D8632A23D00AD8002A00F0BD8006
:1047E000582A40F0CC8084F84520DFF804E257E0F6
:1047F000642A1ED0692A1CD0C1E0732A00F0B1805F
:1048000009D86F2A2ED0702A40F0B980226842F071
:10481000200222603FE0752A24D0782A3BD0AEE007
:104820001A6804F14205111D1960136884F84230BA
:10483000A9E020681A6810F0800F02D0101D1860DF
:1048400008E010F0400F02F10400186002D0B2F945
:10485000003000E01368002B3EDA2D225B4284F822
:10486000432039E020681A6810F0800F02D0101D34
:10487000186007E010F0400F02F10400186001D04A
:10488000138800E01368227EDFF864E16F2A0CBF12
:1048900008220A221CE07822DFF858E184F845203B
:1048A0002268186812F0800F00F104051D6003D122
:1048B000550601D5038800E00368D00744BF42F0E5
:1048C000200222601BB9226822F0200222601022FE
:1048D000002084F8430002E0DFF814E10A22656852
:1048E000002DA8BF2068A560A4BF20F004002060B0
:1048F00003B965B10D46B3FBF2F002FB10331EF8AD
:10490000033005F8013D03460028F4D100E00D46D0
:10491000082A0BD12368DA0708D5236962689A420E
:10492000DEBF302305F8013C05F1FF35491B21614D
:104930002EE025681A6815F0800F606903D0151DF8
:104940001D60136808E015F0400F02F104051D60BA
:10495000136801D0188000E01860002323610D4621
:1049600016E01A68111D1960156800212846626852
:1049700000F0DAF808B1401B6060636804E004F1FD
:10498000420584F8422001232361002384F8433048
:10499000CDF800803046214603AA3B46FFF796FE3D
:1049A000013002D14FF0FF301FE0304639462A4631
:1049B0002369C0470130F5D023689B0705D4E06820
:1049C000039B9842B8BF18460FE00025E368039A9E
:1049D0009B1A9D42F3DA3046394604F1190201234D
:1049E000C0470130DED00135F0E704B0BDE8F0810A
:1049F00095600020A660002038B5064C00230546CF
:104A000008462360FEF7CCF9431C02D1236803B1AA
:104A10002B6038BD4863002010B50C46B1F90E106C
:104A200000F090F80028ABBF636DA3891B1823F436
:104A30008053ACBF6365A38110BD2DE9F0411D46D5
:104A40008B890746DB050C46164605D5B1F90E10D5
:104A50000022022300F056F8A389384623F480533D
:104A6000A381B4F90E1032462B46BDE8F041FEF7A3
:104A700089B910B50C46B1F90E1000F043F8431C8B
:104A8000A38915BF606523F4805343F48053A38149
:104A900018BFA38110BDB1F90E1000F001B80000DD
:104AA00038B5064C0023054608462360FEF720F97A
:104AB000431C02D1236803B12B6038BD486300203A
:104AC00038B5074C00230546084611462360FEF71B
:104AD00021F9431C02D1236803B12B6038BD00BF0C
:104AE0004863002038B5064C00230546084623607D
:104AF000FEF720F9431C02D1236803B12B6038BDB7
:104B00004863002038B5074C054600202060084661
:104B100011461A46FEF71AF9431C02D1236803B165
:104B20002B6038BD4863002010B5C9B202449042E2
:104B3000034605D01C7801308C42F8D1184610BDD0
:104B4000002010BD38B5074C0546002020600846FF
:104B500011461A46FEF708F9431C02D1236803B137
:104B60002B6038BD486300202DE9F04F8BB01F4605
:104B700080468946164600F06FF9DFF8D8A2044651
:104B80009AF900300D46013304D03046394600F022
:104B900083FF20B9204629460BB0BDE8F08F404680
:104BA000494600F079FF834660BB30463946002213
:104BB000002301F009F90028ECD09AF900309E4C4E
:104BC00001229E4900208DE814005A1CCDF820B027
:104BD000CDE90289CDE90467CDE906010DD0022BAC
:104BE0000BD0684600F084FF002800F09380089BFB
:104BF0001BB1FFF76DF8089B0360DDE906010BB000
:104C0000BDE8F08F404649460022002301F0DCF861
:104C1000F8B1304639460022002301F0D5F883462A
:104C200000284ED084489AF9003001210022002447
:104C30000025CDE90289CDE90467CDE9064501905B
:104C400000910892002BCCD07C4B0022CDE90623AA
:104C5000D3E72046294600F019FF834600285ED09E
:104C6000204629460022002301F0AEF8002891D00A
:104C70004046494600F00AFF00288BD030463946AE
:104C800000F004FF002885D09AF900306A4804211A
:104C9000002200240025022BCDE90289CDE904671A
:104CA000CDE9064501900091089200F088806846A1
:104CB00000F01EFF002800F08280089B002B9CD093
:104CC00097E73046394600F0E1FE00283FF462AF36
:104CD000304639460022002301F080F800283FF4D6
:104CE00059AF55499AF800300122CDF820B0CDE9EE
:104CF0000289CDE9046701910092002B3CD0504914
:104D00000020022BCDE9060130D1FEF7E1FF21237F
:104D10000360D2E7FEF7DCFF2123036067E740462C
:104D2000494600F0B3FE00289AD03046394600F0DC
:104D3000ADFE002894D02046294600F0ADFE00BB11
:104D40003D4A9AF8004001230890CDE90289CDE957
:104D50000467019200937CB10020002102460B46BB
:104D6000FEF7AAFB022CCDE90601CED0684600F082
:104D7000BFFE0028A1D1C8E700220023CDE9062309
:104D8000F4E72D499AF900300322CDF820B0CDE99F
:104D90000289CDE9046701910092ABB9294D4FF02A
:104DA00060444046494600220023CDE9064501F013
:104DB00015F850BB9AF90030022B7FF478AFFEF75C
:104DC00087FF2223036078E71F4D002440464946B1
:104DD00000220023CDE9064501F000F80028E9D0C3
:104DE00000221A4B30463946FEF73CFA04460D467F
:104DF00000F086FE22462B4600F0E6FF0028D9D1BF
:104E00000F4B0022CDE90623D4E700220F4B30469A
:104E10003946FEF727FA04460D4600F071FE224699
:104E20002B4600F0D1FF0028C4D1094B4FF060425F
:104E3000CDE90623BEE700BFB86000200000F03FC8
:104E40000000F0FFFFFFEF470000F07F0000E03FB1
:104E5000FFFFEFC7986100202DE9F04F144623F0C3
:104E60000047024657EA04000E468FB01D469C4696
:104E7000214634D06E4B26F0004A9A459346B146FF
:104E800026DC24D09F4223DC694B9F4200F08F80B8
:104E9000B9F1000FC0F28F804FF0000879BB644B6E
:104EA0009F4200F0A580634B9F4267D0BCF1804FCA
:104EB00000F0E283604B9C4521D1B9F1000F1EDB6D
:104EC000104631460FB0BDE8F04F00F015BD62B19D
:104ED0000AF1404000F5801050EA0B0007D103466C
:104EE000544918460FB0BDE8F08F5745CCDD534804
:104EF0000FB0BDE8F04F00F0FDBD4FF000081046C8
:104F00003146CDF808C0009200F0BCFD009ADDF8F3
:104F100008C0BBF1000F20D04FEAD97909F1FF3961
:104F200058EA09037AD0464B9F4240F38F8003F141
:104F300004739F4240F31084424B9A4540F392839E
:104F4000BCF1000F40F3928337A1D1E900010B4679
:104F50000246FEF787F90346C3E7BAF1000F04D013
:104F6000344B29F0404E9E45D6D1BCF1000FC0F223
:104F7000B683B9F1000F08DB0346B2E7BCF1000FBE
:104F8000C0F2528413463146ABE70AF1404A0AF5B3
:104F9000801A58EA0A0340F05E8402460B46FDF789
:104FA000ADFF0B460246FEF787FA034699E7002954
:104FB0003FF46EAF8CE7244B9F422CDCA3F154737B
:104FC0009F427FF769AF40F213403B15834240F3A5
:104FD0004B84C3F58663033321FA03F000FA03F32D
:104FE0008B427FF459AF00F00100C0F1020855E791
:104FF0000AF1404303F5801353EA0B0300F03983B1
:10500000104B9A4540F36483BCF1000FC0F22E832D
:105010002346294665E74FF002083FE71046314630
:105020003346BCE7AFF300809C7500883CE4377ED4
:105030000000F07F0000F03F0000E03FF060002043
:105040000000E041FFFFEF3FFFFF3F43BAF5801F45
:105050004FF0000205DACA4BFEF704F98A466FF0FA
:1050600034024FEA2A53C74ECAF3130AA3F2FF339E
:105070004AF07F571344B2450C9347F4401740F36E
:10508000D083C14B9A4540F307840026B4460C9B5D
:10509000A7F5801701330C933946BC4B4FEACC0C73
:1050A0006344D3E900AB52465B46CDF834C0CDE94A
:1050B0000601FDF723FF52465B46CDE90801DDE915
:1050C0000601FDF71DFF02460B460020B049FEF722
:1050D000F3F902460B46DDE90801CDE90A23FEF7A4
:1050E000C1F802460B46CDE90223CDE904237B102B
:1050F00043F0005303F500239919002000230646CE
:105100000F460293DDE902231046194632463B461C
:10511000CDE90001FEF7A6F802460B46DDE90801DD
:10512000FDF7ECFE5246CDE908015B4630463946B4
:10513000FDF7E4FE02460B46DDE90601FDF7DEFE63
:1051400002460B46DDE90001FEF78CF802460B46ED
:10515000DDE90801FDF7D2FEDDE90A23FEF782F85A
:10516000DDE90423CDE9060110461946FEF77AF879
:1051700002460B4606460F46FEF774F86EA3D3E9C7
:10518000002382468B4630463946FEF76BF86CA307
:10519000D3E90023FDF7B4FE32463B46FEF762F842
:1051A00069A3D3E90023FDF7ABFE32463B46FEF789
:1051B00059F867A3D3E90023FDF7A2FE32463B4628
:1051C000FEF750F864A3D3E90023FDF799FE3246B9
:1051D0003B46FEF747F862A3D3E90023FDF790FEB4
:1051E00002460B4650465946FEF73CF8DDE90423DB
:1051F00006460F46DDE90001FDF782FEDDE90623E4
:10520000FEF730F832463B46FDF77AFEDDE90067EF
:1052100082468B4632463B4630463946FEF722F8F8
:1052200000225C4BCDE90801FDF76AFE52465B4661
:10523000FDF766FE02980F460646DDE9000132469C
:105240003B46FEF70FF832463B46CDE90001DDE96B
:105250000601FEF707F80022CDE906014D4B304666
:105260003946FDF74BFEDDE90823FDF747FE024610
:105270000B4650465946FDF741FEDDE90423FDF794
:10528000F1FF02460B46DDE90601FDF739FE8246D5
:105290008B46DDE9000152465B46FDF731FE32A345
:1052A000D3E9002302980F460646FDF7DBFF30A343
:1052B000D3E90023CDE9040130463946FDF7D2FF9A
:1052C000DDE90023CDE9060130463946FDF716FE3B
:1052D00002460B4650465946FDF710FE26A3D3E979
:1052E0000023FDF7BFFF02460B46DDE90601FDF78F
:1052F00007FEDDF834C0284BCDF818C06344D3E96D
:105300000023FDF7FDFDCDE900010C98FDF744FFFA
:1053100006460F46DDE90401204BDDF818C09C4429
:10532000DDE90023DCE900ABFDF7EAFD52465B4610
:1053300036E000BFAFF30080EF4E454A287ECA3FFB
:1053400065DBC9934A86CD3F01411DA96074D13FF9
:105350004D268F515555D53FFFAB6FDBB66DDB3F0B
:10536000033333333333E33F000000E009C7EE3F3C
:10537000F5015B14E02F3EBEFD033ADC09C7EE3FAA
:10538000000040438E98030079B60B00E0600020D7
:105390000000F03F00000840D0600020C060002006
:1053A000CDE906ABFDF7ACFD32463B46FDF7A8FD67
:1053B000029832463B4682468B46FDF79FFDDDE96B
:1053C0000623FDF79BFDDDE90423FDF797FD02466B
:1053D0000B46DDE90001FDF791FDCDE9020108F181
:1053E000FF3858EA09030CBFD54BD64B0022CDE954
:1053F00004230023CDE900450093DDE90067204642
:1054000032463B462946FDF779FD52465B46FDF79D
:1054100029FFDDE902238046894620462946FDF71B
:1054200021FF02460B4640464946FDF769FD04460A
:105430000D465246304639465B46CDE90245FDF7FA
:1054400011FF06460F4620463B4629463246FDF7E9
:1054500057FDBD4B824699428946884640F31381E9
:1054600001F13F4303F5E003034340F0E581A0A3CE
:10547000D3E90023DDE90201FDF742FD324604468F
:105480000D463B4650464946FDF738FD02460B4661
:105490002046294600F0C0FC002840F0CD814C4653
:1054A0002015A0F2FE304FF4801101414144C1F3B8
:1054B0000A50A64CA0F2FF35C1F3130BC0F5826071
:1054C00003302C414BF4801B21EA040300224BFAE9
:1054D00000FB39463046FDF711FD06460F46DDE973
:1054E00002018BEAE87B0BEBD87B32463B464FEA66
:1054F0000B5AFDF705FD80A3D3E9002300242046C5
:105500000D46FDF7AFFE3246804689463B462046B3
:105510002946FDF7F3FC02460B46DDE90201FDF7E3
:10552000EDFC77A3D3E90023FDF79CFE76A3D3E936
:10553000002306460F4620462946FDF793FE024605
:105540000B4630463946FDF7DBFC06460F46324631
:105550003B4640464946FDF7D3FC42464B4604468F
:105560000D46FDF7CBFC02460B4630463946FDF7AB
:10557000C5FC2246804689462B4620462946FDF733
:1055800071FE63A3D3E9002306460F46FDF76AFECA
:1055900061A3D3E90023FDF7B1FC32463B46FDF79A
:1055A00061FE5FA3D3E90023FDF7AAFC32463B4628
:1055B000FDF758FE5CA3D3E90023FDF79FFC3246BC
:1055C0003B46FDF74FFE5AA3D3E90023FDF798FCB5
:1055D00032463B46FDF746FE02460B46204629462C
:1055E000FDF78CFC06460F4632463B4620462946D0
:1055F000FDF738FE0022CDE900014FF08043304630
:105600003946FDF77BFC02460B46DDE90001FDF75C
:1056100053FF424606460F464B4620462946FDF7B5
:1056200021FE42464B46FDF76BFC02460B463046D8
:105630003946FDF763FC22462B46FDF75FFC024628
:105640000B4600203F49FDF759FC8A44BAF5801FFC
:105650000246C0F227815346DDE90401FDF702FE50
:1056600003463EE4BCF1000FFFF66EAC0023194682
:1056700037E40B46334934E4334610463146FDF7F0
:10568000F1FD03462DE4324B21F000449C4240F3EF
:10569000FA80304B0B4403430CD132463B46FDF7B6
:1056A0002DFC02460B46DDE9020100F0A1FB0028BB
:1056B0003FF4F6AE20A3D3E90023DDE90401FDF7B2
:1056C000D1FD1DA3D3E90023FDF7CCFD034608E47B
:1056D000BCF1000FCADA234605F1004101E402469D
:1056E0000B4600201749FDF7E7FE42E4AFF30080C8
:1056F000FE822B654715973C00000000432EE63FD5
:10570000EF39FAFE422EE63F396CA80C615C20BEF0
:10571000D0A4BE726937663EF16BD2C541BDBB3EB7
:105720002CDE25AF6A56113F93BDBE166CC1663F95
:105730003E5555555555C53F59F3F8C21F6EA50145
:105740000000F0BF0000F03FFFFF8F40FFFF0F00A1
:10575000FFCB904000346F3F634B9A4582DD634B33
:105760009A453FF7EDAB0022604BFDF7C7FB54A312
:10577000D3E9002306460F46FDF774FD52A3D3E993
:105780000023CDE9000130463946FDF76BFD324676
:10579000CDE902013B4630463946FDF763FD002264
:1057A00082468B4630463946514BFDF75BFD02463B
:1057B0000B4647A1D1E90001FDF7A0FB32463B466D
:1057C000FDF750FD02460B4600204A49FDF796FBC7
:1057D00002460B4650465946FDF744FD3EA3D3E929
:1057E0000023FDF73FFD02460B46DDE90201FDF710
:1057F00085FB06460F46DDE9000132463B46FDF7D4
:105800007FFBDDE90023002082468B46FDF776FB17
:1058100002460B4630463946FDF770FBCDE90201E2
:10582000DDE50026B44637E4334600202F49FDF776
:1058300043FE0346FFF755BB29A3D3E90023DDE967
:105840000401FDF70FFD26A3D3E90023FDF70AFDB0
:105850000346FFF746BBB8F1010F03467FF441ABA7
:1058600001F10041FFF73DBB00297FF446ABC3F5D2
:105870008263033347FA03F000FA03F3BB4217D005
:105880008846FFF710BB1B4B9C423FF709AEDDE992
:105890000023924693462EE64FF480264FF0010CEB
:1058A000FFF7FABB5A4600F0BBF902460B46D3E6B7
:1058B00000F00100C0F10208FFF7F5BAAFF3008075
:1058C000000000604715F73F44DF5DF80BAE543E23
:1058D000555555555555D53FFE822B654715F73F14
:1058E0009C7500883CE4377EFEFFEF3F0000F03FF0
:1058F0000000D03F0000E03F2DE9F041604E0C4633
:10590000B6460E40764505460B4600F098800029C5
:10591000024676DD5FEA215E00F08180AEF2FF3E56
:10592000C3F313031EF0010F43F480135ED100276D
:105930003C46D10F01EB43034FEA6E0E5200162096
:105940004FF4001165189D424FEAD2764FEA4202A9
:1059500002DC5B1B6C180F44013806EB43034FEA73
:105960005101EFD1844620264FF000410AE0A342C6
:1059700020D0D50F013E4FEA510105EB43034FEA1A
:10598000420220D09C420CEB0105F0DA002D05EB21
:10599000010C09DBA0461B1B954288BF03F1FF33B6
:1059A0004446521B0844E4E7BCF1000FF2DB04F16B
:1059B0000108F0E7954217D8002D05EB010C48DBF4
:1059C00098460023ECE7134315D140087B1003F100
:1059D0007F5303F50013FA0703EB0E57394648BF10
:1059E00040F00040BDE8F0811C46C2E7D10F01EB5A
:1059F000430352009BE7411C31D000F001031844DF
:105A0000E3E721F000460643ECD079BB8E46D30A8B
:105A1000AEF1150E5205002BF9D0DC0222D4002184
:105A20005B00D80201F10101FAD5C1F10100C1F119
:105A3000200422FA04F4234386448A406EE7024697
:105A40000B46FDF70FFC2A462346FDF759FABDE841
:105A5000F081BCF1000FAADAA0460023A0E70137CD
:105A60003046B3E7202401200021E2E702460B463E
:105A7000FDF744FA02460B46FDF71EFDB2E700BFF4
:105A80000000F07F21F00041704700BF41F000416D
:105A900001F58010C00F704710B431F0004408D0F9
:105AA000114BA1F580129A4208D804205DF8044BEE
:105AB000704718B902205DF8044B704701F1FF41AF
:105AC000094B01F5E0019942EFD9B4F5801F01D2ED
:105AD0000320EBE7054B9C4201D00020E6E7B0FA3B
